:020000040802F0
:1004000000000420F93E0208450C02084B0C0208CB
:10041000510C0208570C02085D0C02080000000095
:10042000000000000000000000000000B11C0208F5
:10043000630C020800000000011F0208710C020892
:10044000493F0208493F0208493F0208493F020864
:10045000493F0208493F0208493F0208493F020854
:10046000493F0208493F0208493F0208493F020844
:10047000493F0208493F0208493F0208493F020834
:10048000493F0208493F0208493F0208493F020824
:10049000493F0208493F0208493F0208493F020814
:1004A000493F0208493F0208493F0208493F020804
:1004B000493F0208493F0208493F0208493F0208F4
:1004C000493F0208493F0208493F0208493F0208E4
:1004D000493F0208493F0208493F0208493F0208D4
:1004E000493F0208493F0208493F0208493F0208C4
:1004F000493F0208493F0208493F0208493F0208B4
:1005000000000000493F0208493F0208493F020835
:100510000000000000000000493F0208493F0208B7
:10052000493F0208493F0208493F0208493F020883
:10053000493F0208493F0208493F0208493F020873
:10054000493F0208493F0208493F0208493F020863
:10055000493F0208493F0208493F0208493F020853
:10056000493F0208493F0208000000000000000067
:10057000000000000000000000000000000000007B
:10058000493F0208493F0208000000000000000047
:10059000493F0208493F0208000000000000000037
:1005A000000000000000000000000000000000004B
:1005B000493F02080000000000000000493F020817
:0405C000493F0208A5
:1005D00010B5054C237833B9044B13B10448AFF37D
:1005E00000800123237010BD48040020000000009B
:1005F0009842020808B5034B1BB103490348AFF307
:10060000008008BD000000004C0400209842020851
:1006100053B94AB9002908BF00281CBF4FF0FF3169
:100620004FF0FF3000F074B9ADF1080C6DE904CE65
:1006300000F006F8DDF804E0DDE9022304B07047BD
:100640002DE9F047089D04468E46002B4DD18A4285
:10065000944669D9B2FA82F252B101FA02F3C2F1B8
:10066000200120FA01F10CFA02FC41EA030E944049
:100670004FEA1C48210CBEFBF8F61FFA8CF708FB6A
:1006800016E341EA034306FB07F199420AD91CEB42
:10069000030306F1FF3080F01F81994240F21C8174
:1006A000023E63445B1AA4B2B3FBF8F008FB1033BC
:1006B00044EA034400FB07F7A7420AD91CEB0404F1
:1006C00000F1FF3380F00A81A74240F207816444C1
:1006D000023840EA0640E41B00261DB1D440002346
:1006E000C5E900433146BDE8F0878B4209D9002DAA
:1006F00000F0EF800026C5E9000130463146BDE834
:10070000F087B3FA83F6002E4AD18B4202D382429D
:1007100000F2F980841A61EB030301209E46002D4C
:10072000E0D0C5E9004EDDE702B9FFDEB2FA82F2A1
:10073000002A40F09280A1EB0C014FEA1C471FFAFF
:100740008CFE0126200CB1FBF7F307FB131140EAE6
:1007500001410EFB03F0884208D91CEB010103F1B3
:10076000FF3802D2884200F2CB804346091AA4B275
:10077000B1FBF7F007FB101144EA01440EFB00FE49
:10078000A64508D91CEB040400F1FF3102D2A645AE
:1007900000F2BB800846A4EB0E0440EA03409CE74D
:1007A000C6F12007B34022FA07FC4CEA030C20FAFA
:1007B00007F401FA06F31C43F9404FEA1C4900FA1A
:1007C00006F3B1FBF9F8200C1FFA8CFE09FB181197
:1007D00040EA014108FB0EF0884202FA06F20BD90A
:1007E0001CEB010108F1FF3A80F08880884240F25A
:1007F0008580A8F102086144091AA4B2B1FBF9F09E
:1008000009FB101144EA014100FB0EFE8E4508D998
:100810001CEB010100F1FF346CD28E456AD902381D
:10082000614440EA0840A0FB0294A1EB0E01A14202
:10083000C846A64656D353D05DB1B3EB080261EB70
:100840000E0101FA07F722FA06F3F1401F43C5E94A
:10085000007100263146BDE8F087C2F12003D84080
:100860000CFA02FC21FA03F3914001434FEA1C47C2
:100870001FFA8CFEB3FBF7F007FB10360B0C43EAB4
:10088000064300FB0EF69E4204FA02F408D91CEB64
:10089000030300F1FF382FD29E422DD90238634462
:1008A0009B1B89B2B3FBF7F607FB163341EA034102
:1008B00006FB0EF38B4208D91CEB010106F1FF3851
:1008C00016D28B4214D9023E6144C91A46EA004648
:1008D00038E72E46284605E70646E3E61846F8E6DA
:1008E0004B45A9D2B9EB020864EB0C0E0138A3E723
:1008F0004646EAE7204694E74046D1E7D0467BE704
:10090000023B614432E7304609E76444023842E77B
:10091000704700BF70B50D4E0D4D761BB61006D05A
:10092000002455F8043B01349847A642F9D1094EFA
:10093000094D761B03F0B0FCB61006D0002455F824
:10094000043B01349847A642F9D170BD1443020814
:10095000144302081C43020814430208830730B5FD
:1009600048D0541E002A3FD0CAB2034601E0013CE1
:100970003AD303F8012B9D07F9D1032C2DD9CDB221
:1009800045EA05250F2C45EA054536D9A4F11002A4
:1009900022F00F0C03F1200EE6444FEA121C03F183
:1009A000100242E9045542E9025510327245F8D16D
:1009B0000CF1010214F00C0F03EB021204F00F0C07
:1009C00013D0ACF1040323F003030433134442F8BF
:1009D000045B9342FBD10CF003042CB1CAB21C445B
:1009E00003F8012B9C42FBD130BD64461346002C1A
:1009F000F4D1F9E703461446BFE71A46A446E0E7F8
:100A0000024B13B1024800F005B870470000000027
:100A1000210A0208002301461A46184600F01AB8B7
:100A200038B5084B084D5B1B9C1007D0043B1D4498
:100A3000013C55F804399847002CF9D1BDE83840FD
:100A400003F030BC204302081C430208704700BF7B
:100A5000704700BF2DE9F047DFF880A00646DAF8BE
:100A6000000098460F469146FFF7F0FF1A4B1B68AF
:100A7000D3F8484124B365681F2D26DC5EB96B1C92
:100A80000235DAF80000636044F82570FFF7E0FFF4
:100A90000020BDE8F08704EB85010123C1F88890B0
:100AA000D4F88821AB401A43022EC4F88821C1F83B
:100AB0000881E4D1D4F88C211343C4F88C31DEE7EB
:100AC00003F5A674C3F84841D5E7DAF80000FFF74C
:100AD000BFFF4FF0FF30DCE7D442020830040020B3
:100AE00080B500AF00F0FAFD00F014F800F09CFEB5
:100AF000054A0021054800F0E1FE0346044A136060
:100B000000F0B6FEFEE700BFD8420208D10B020893
:100B10006804002080B594B000AF07F11C033422B4
:100B200000211846FFF71AFF07F1080300221A6098
:100B30005A609A60DA601A6100237B60224B1B6C5A
:100B4000214A43F0805313641F4B1B6C03F0805306
:100B50007B607B6800233B601C4B1B681B4A43F493
:100B600040431360194B1B6803F440433B603B68F0
:100B70000223FB610123BB621023FB6200237B6322
:100B800007F11C03184600F079F90346002B01D049
:100B900000F026F80F23BB600023FB6000233B61BD
:100BA00000237B610023BB6107F108030021184685
:100BB00000F0E8FB0346002B01D000F011F800BF65
:100BC0005037BD4680BD00BF003802400070004075
:100BD00080B582B000AF7860012000F001FFFBE734
:100BE00080B400AF72B600BFFEE7000080B582B0EF
:100BF00000AF00237B60124B5B6C114A43F48043CF
:100C000053640F4B5B6C03F480437B607B68002371
:100C10003B600B4B1B6C0A4A43F080531364084B38
:100C20001B6C03F080533B603B6800220F216FF088
:100C3000010000F0FAF800BF0837BD4680BD00BFD4
:100C40000038024080B400AFFEE780B400AFFEE79A
:100C500080B400AFFEE780B400AFFEE780B400AF21
:100C6000FEE780B400AF00BFBD465DF8047B70476F
:100C700080B500AF00F084FD02F010FD0346012BAB
:100C800001D001F071F900BF80BD000080B400AF59
:100C9000064BD3F88830054A43F47003C2F8883015
:100CA00000BFBD465DF8047B704700BF00ED00E06B
:100CB00080B485B000AF78607B6803F00703FB6009
:100CC0000C4BDB68BB60BA684FF6FF031340BB6098
:100CD000FB681A02BB68134343F0BF6343F400335D
:100CE000BB60044ABB68D36000BF1437BD465DF8E3
:100CF000047B704700ED00E080B400AF044BDB687C
:100D00001B0A03F007031846BD465DF8047B7047D5
:100D100000ED00E080B483B000AF03463960FB71A2
:100D200097F90730002B0ADB3B68DAB20C4997F9D8
:100D300007301201D2B20B4483F800230AE03B686B
:100D4000DAB20849FB7903F00F03043B1201D2B277
:100D50000B441A7600BF0C37BD465DF8047B704724
:100D600000E100E000ED00E080B489B000AFF86081
:100D7000B9607A60FB6803F00703FB61FB69C3F1AC
:100D80000703042B28BF0423BB61FB690433062B34
:100D900002D9FB69033B00E000237B614FF0FF3287
:100DA000BB6902FA03F3DA43BB681A407B699A40D5
:100DB0004FF0FF317B6901FA03F3D9437B680B40A5
:100DC000134318462437BD465DF8047B7047000086
:100DD00080B582B000AF78607B68013BB3F1807F63
:100DE00001D301230FE00A4A7B68013B53600F21C6
:100DF0004FF0FF30FFF78EFF054B00229A60044B47
:100E000007221A60002318460837BD4680BD00BF80
:100E100010E000E080B582B000AF78607868FFF73E
:100E200047FF00BF0837BD4680BD80B586B000AF24
:100E30000346B9607A60FB7300237B61FFF75CFFB8
:100E400078617A68B9687869FFF78EFF024697F98A
:100E50000F3011461846FFF75DFF00BF1837BD463B
:100E600080BD80B582B000AF78607868FFF7B0FFD2
:100E7000034618460837BD4680BD000080B586B0E1
:100E800000AF78607B68002B01D1012373E27B689F
:100E90001B6803F00103002B75D0884B9B6803F09F
:100EA0000C03042B0CD0854B9B6803F00C03082B20
:100EB00012D1824B5B6803F48003B3F5800F0BD132
:100EC0007E4B1B6803F40033002B5BD07B685B68B0
:100ED000002B57D101234EE27B685B68B3F5803F5E
:100EE00006D1764B1B68754A43F4803313601DE0CE
:100EF0007B685B68B3F5A02F0CD1704B1B686F4A01
:100F000043F4802313606D4B1B686C4A43F48033B9
:100F100013600BE0694B1B68684A23F4803313604D
:100F2000664B1B68654A23F4802313607B685B680B
:100F3000002B13D000F038FC386108E000F034FCDE
:100F400002463B69D31A642B01D9032313E25B4B9E
:100F50001B6803F40033002BF0D014E000F024FCF5
:100F6000386108E000F020FC02463B69D31A642B8C
:100F700001D90323FFE1514B1B6803F40033002B1D
:100F8000F0D100E000BF7B681B6803F00203002B78
:100F900063D04A4B9B6803F00C03002B0BD0474BEC
:100FA0009B6803F00C03082B1CD1444B5B6803F4D3
:100FB0008003002B16D1414B1B6803F00203002B6A
:100FC00005D07B68DB68012B01D00123D3E13B4BCB
:100FD0001B6823F0F8027B681B69DB003749134369
:100FE0000B603AE07B68DB68002B20D0344B012299
:100FF0001A6000F0D9FB386108E000F0D5FB02462A
:101000003B69D31A022B01D90323B4E12B4B1B6894
:1010100003F00203002BF0D0284B1B6823F0F802EA
:101020007B681B69DB00254913430B6015E0244BEB
:1010300000221A6000F0B8FB386108E000F0B4FB51
:1010400002463B69D31A022B01D9032393E11B4BC0
:101050001B6803F00203002BF0D17B681B6803F0D0
:101060000803002B36D07B685B69002B16D0154B2C
:1010700001221A6000F098FB386108E000F094FB50
:1010800002463B69D31A022B01D9032373E10B4BB0
:101090005B6F03F00203002BF0D01BE0094B002232
:1010A0001A6000F081FB38610EE000F07DFB024623
:1010B0003B69D31A022B07D903235CE100380240B5
:1010C00000004742800E47428A4B5B6F03F00203E9
:1010D000002BEAD17B681B6803F00403002B00F0AF
:1010E00097800023FB75834B1B6C03F08053002B10
:1010F0000FD10023BB607F4B1B6C7E4A43F08053B3
:1011000013647C4B1B6C03F08053BB60BB680123F2
:10111000FB75794B1B6803F48073002B18D1764B59
:101120001B68754A43F48073136000F03DFB38611F
:1011300008E000F039FB02463B69D31A022B01D9C3
:10114000032318E16C4B1B6803F48073002BF0D071
:101150007B689B68012B06D1664B1B6F654A43F089
:10116000010313671CE07B689B68052B0CD1614B66
:101170001B6F604A43F0040313675E4B1B6F5D4AAD
:1011800043F0010313670BE05A4B1B6F594A23F0DE
:1011900001031367574B1B6F564A23F00403136771
:1011A0007B689B68002B15D000F0FEFA38610AE0DE
:1011B00000F0FAFA02463B69D31A41F288329342B0
:1011C00001D90323D7E04B4B1B6F03F00203002B25
:1011D000EED014E000F0E8FA38610AE000F0E4FA3A
:1011E00002463B69D31A41F28832934201D9032364
:1011F000C1E0404B1B6F03F00203002BEED1FB7DDF
:10120000012B05D13B4B1B6C3A4A23F080531364EE
:101210007B689B69002B00F0AD80364B9B6803F028
:101220000C03082B60D07B689B69022B45D1334BA4
:1012300000221A6000F0B8FA386108E000F0B4FA51
:1012400002463B69D31A022B01D9032393E0294BB1
:101250001B6803F00073002BF0D17B68DA697B68B0
:101260001B6A1A437B685B6A9B011A437B689B6A13
:101270005B08013B1B041A437B68DB6A1B061A43AD
:101280007B681B6B1B071B4913434B601B4B0122E5
:101290001A6000F089FA386108E000F085FA024629
:1012A0003B69D31A022B01D9032364E0114B1B685D
:1012B00003F00073002BF0D05CE0104B00221A60AA
:1012C00000F072FA386108E000F06EFA02463B69FD
:1012D000D31A022B01D903234DE0064B1B6803F000
:1012E0000073002BF0D145E07B689B69012B07D18F
:1012F000012340E000380240007000406000474297
:101300001F4B5B68FB607B689B69012B30D0FB68DF
:1013100003F480027B68DB699A4229D1FB6803F001
:101320003F027B681B6A9A4222D1FA6847F6C07373
:1013300013407A68526A9201934219D1FB6803F410
:1013400040327B689B6A5B08013B1B049A420FD1C9
:10135000FB6803F070627B68DB6A1B069A4207D168
:10136000FB6803F0E0427B681B6B1B079A4201D0CD
:10137000012300E0002318461837BD4680BD00BF9A
:101380000038024080B584B000AF786039607B6877
:10139000002B01D10123CCE0684B1B6803F007034D
:1013A0003A689A420CD9654B3A68D2B21A70634BCC
:1013B0001B6803F007033A689A4201D00123B8E0A2
:1013C0007B681B6803F00203002B20D07B681B683E
:1013D00003F00403002B05D0594B9B68584A43F493
:1013E000E05393607B681B6803F00803002B05D073
:1013F000534B9B68524A43F460439360504B9B6845
:1014000023F0F0027B689B684D4913438B607B6837
:101410001B6803F00103002B44D07B685B68012B41
:1014200007D1474B1B6803F40033002B19D101236C
:101430007FE07B685B68022B03D07B685B68032BD3
:1014400007D13F4B1B6803F00073002B09D1012328
:101450006FE03B4B1B6803F00203002B01D101231B
:1014600067E0374B9B6823F003027B685B68344975
:1014700013438B6000F098F9F8600AE000F094F9EB
:101480000246FB68D31A41F28832934201D9032302
:101490004FE02B4B9B6803F00C027B685B689B0062
:1014A0009A42EBD1254B1B6803F007033A689A4236
:1014B0000CD2224B3A68D2B21A70204B1B6803F050
:1014C00007033A689A4201D0012332E07B681B6827
:1014D00003F00403002B08D0194B9B6823F4E0525F
:1014E0007B68DB68164913438B607B681B6803F0DD
:1014F0000803002B09D0124B9B6823F460427B68E1
:101500001B69DB000E4913438B6000F021F8024693
:101510000B4B9B681B0903F00F030A49CB5C22FAB3
:1015200003F3094A1360094B1B68184600F0F8F8EA
:10153000002318461037BD4680BD00BF003C024066
:1015400000380240FC420208340400203804002025
:101550002DE9B04F90B000AF00237B630023FB6305
:1015600000233B630023BB63594B9B6803F00C03D0
:10157000082B0DD0082B00F2A180002B02D0042BE9
:1015800003D09BE0534BBB639BE0534BBB6398E0A2
:101590004F4B5B6803F03F037B634D4B5B6803F489
:1015A0008003002B28D04A4B5B689B0900223B62DA
:1015B0007A623B6AC3F308000021474B03FB01F248
:1015C000002300FB03F31344434AA0FB0212FA6218
:1015D0000A46BA62FA6A1344FB627B6B0022BB6163
:1015E000FA61D7E90623D7E90A01FFF711F80246A5
:1015F0000B461346FB6353E0354B5B689B090022A7
:101600003B617A613B69C3F3080A4FF0000B524615
:101610005B464FF000004FF00001590141EAD261F2
:10162000500102460B46B2EB0A0863EB0B094FF080
:1016300000024FF000034FEA891343EA98634FEA30
:101640008812B2EB080463EB09054FF000024FF07B
:101650000003EB0043EA5473E20014461D4614EB0A
:101660000A033B6045EB0B037B604FF000024FF039
:101670000003D7E9004529468B02214643EA9153EE
:1016800021468A02104619467B6B0022BB60FA6035
:10169000D7E90223FEF7BCFF02460B461346FB6365
:1016A0000B4B5B681B0C03F0030301335B003B63D4
:1016B000FA6B3B6BB2FBF3F3BB6302E0054BBB631E
:1016C00000BFBB6B18464037BD46BDE8B08F00BFBA
:1016D000003802400024F40040787D0180B500AF5E
:1016E0000E4B1B680D4A43F4007313600B4B1B68D1
:1016F0000A4A43F480631360084B1B68074A43F4AB
:10170000807313600320FFF785FB0F2000F008F8BB
:10171000FFF76CFA0023184680BD00BF003C024072
:1017200080B582B000AF7860124B1A68124B1B78FC
:1017300019464FF47A73B3FBF1F3B2FBF3F3184697
:10174000FFF78FFB0346002B01D001230EE07B68DF
:101750000F2B0AD8002279684FF0FF30FFF765FBA6
:10176000064A7B681360002300E00123184608370F
:10177000BD4680BD340400203C0400203804002015
:1017800080B400AF064B1B781A46064B1B68134407
:10179000044A136000BFBD465DF8047B704700BF7C
:1017A0003C0400206C04002080B400AF034B1B6895
:1017B0001846BD465DF8047B704700BF6C040020EE
:1017C00080B483B000AF03463960FB7197F90730EE
:1017D000002B0ADB3B68DAB20C4997F9073012019B
:1017E000D2B20B4483F800230AE03B68DAB208491E
:1017F000FB7903F00F03043B1201D2B20B441A76BB
:1018000000BF0C37BD465DF8047B704700E100E087
:1018100000ED00E080B500AF00216FF00400FFF79D
:10182000CFFF00BF80BD000080B483B000AFEFF3F6
:1018300005833B603B68002B03D06FF005037B60A2
:101840000CE00A4B1B68002B05D1084B01221A60E3
:1018500000237B6002E04FF0FF337B607B6818461B
:101860000C37BD465DF8047B704700BF7004002054
:1018700080B582B000AFEFF305833B603B68002B7F
:1018800003D06FF005037B6010E00B4B1B68012B4E
:1018900009D1FFF7BFFF084B02221A6001F0B6FA28
:1018A00000237B6002E04FF0FF337B607B681846CB
:1018B0000837BD4680BD00BF7004002080B58EB0E3
:1018C00004AFF860B9607A6000233B61EFF30583F1
:1018D0007B617B69002B7ED1FB68002B7BD0802352
:1018E0003B621823FB6100237B624FF0FF33BB6137
:1018F0007B68002B45D07B681B68002B02D07B687F
:101900001B687B627B689B69002B02D07B689B69AC
:10191000FB61FB69002B08D0FB69382B05D87B687D
:101920005B6803F00103002B01D0002354E07B68C7
:101930005B69002B03D07B685B699B083B627B681B
:101940009B68002B0ED07B68DB685B2B0AD97B6819
:101950001B69002B06D07B685B69002B02D001233A
:10196000BB6110E07B689B68002B0CD17B68DB6857
:10197000002B08D17B681B69002B04D10023BB61BD
:1019800001E00023BB61BB69012B10D17B681B699F
:101990007A68926802920193FB690093BB683A6A85
:1019A000796AF86801F05CF803463B6113E0BB69B3
:1019B000002B10D13B6A9AB207F110030193FB6927
:1019C0000093BB68796AF86801F0A7F80346012B19
:1019D00001D000233B613B6918462837BD4680BDD6
:1019E00080B584B000AF7860EFF30583BB60BB685F
:1019F000002B03D06FF00503FB6007E00023FB60C2
:101A00007B68002B02D0786801F0CCF9FB6818469F
:101A10001037BD4680BD000080B485B000AFF860CF
:101A2000B9607A60FB68074A1A60BB68064A1A60A8
:101A30007B6880221A6000BF1437BD465DF8047BC6
:101A4000704700BF74040020D004002080B485B02B
:101A500000AFF860B9607A60FB68074A1A60BB683B
:101A6000064A1A607B684FF480721A6000BF143710
:101A7000BD465DF8047B7047D00600202C0700208F
:101A800080B483B000AF78607B6803F108027B68A4
:101A90005A607B684FF0FF329A607B6803F108025E
:101AA0007B68DA607B6803F108027B681A617B68F7
:101AB00000221A6000BF0C37BD465DF8047B7047FA
:101AC00080B483B000AF78607B6800221A6100BFE9
:101AD0000C37BD465DF8047B704780B485B000AF1D
:101AE000786039607B685B68FB603B68FA685A60C5
:101AF000FB689A683B689A60FB689B683A685A6022
:101B0000FB683A689A603B687A681A617B681B6870
:101B10005A1C7B681A6000BF1437BD465DF8047B11
:101B2000704780B485B000AF786039603B681B684F
:101B3000BB60BB68B3F1FF3F03D17B681B69FB60EF
:101B40000CE07B680833FB6002E0FB685B68FB60CD
:101B5000FB685B681B68BA689A42F6D2FB685A68F1
:101B60003B685A603B685B683A689A603B68FA6811
:101B70009A60FB683A685A603B687A681A617B68C9
:101B80001B685A1C7B681A6000BF1437BD465DF89D
:101B9000047B704780B485B000AF78607B681B69B8
:101BA000FB607B685B687A6892689A607B689B6878
:101BB0007A6852685A60FB685B687A689A4203D117
:101BC0007B689A68FB685A607B6800221A61FB6830
:101BD0001B685A1EFB681A60FB681B68184614379E
:101BE000BD465DF8047B704780B485B000AFF860F7
:101BF000B9607A60FB68043BFB60FB684FF0807261
:101C00001A60FB68043BFB60BB6823F00102FB68C1
:101C10001A60FB68043BFB600C4AFB681A60FB68B7
:101C2000143BFB607A68FB681A60FB68043BFB604E
:101C3000FB686FF002021A60FB68203BFB60FB68E8
:101C400018461437BD465DF8047B7047511C0208E6
:101C500080B485B000AF00237B60124B1B68B3F1EA
:101C6000FF3F0AD04FF0500383F31188BFF36F8F0B
:101C7000BFF34F8FFB6000BFFEE74FF0500383F3CD
:101C80001188BFF36F8FBFF34F8FBB6000BF00BFE2
:101C90007B68002BFCD000BF00BF1437BD465DF849
:101CA000047B70474004002000000000000000009A
:101CB000074B19680868B0E8F04F80F30988BFF354
:101CC0006F8F4FF0000080F311887047AFF30080F2
:101CD000740B002000BF00BF08480068006880F354
:101CE00008884FF0000080F3148862B661B6BFF335
:101CF0004F8FBFF36F8F00DF00BF00BF08ED00E024
:101D000080B586B000AF464B1B68464A93420AD165
:101D10004FF0500383F31188BFF36F8FBFF34F8FE2
:101D20003B6100BFFEE73E4B1B683F4A93420AD12E
:101D30004FF0500383F31188BFF36F8FBFF34F8FC2
:101D4000FB6000BFFEE7394B7B617B691B78DBB230
:101D50007B607B69FF221A707B691B78DBB2FB70AA
:101D6000FB78DBB203F05003DAB2314B1A70314B1F
:101D700007221A6009E02F4B1B68013B2D4A1360B4
:101D8000FB78DBB25B00DBB2FB70FB78DBB203F00D
:101D90008003802BEFD0274B1B68C3F10703042B74
:101DA0000AD04FF0500383F31188BFF36F8FBFF356
:101DB0004F8FBB6000BFFEE71E4B1B681B021D4A16
:101DC00013601C4B1B6803F4E0631A4A13607B68C2
:101DD000DAB27B691A70184B1B68174A43F4700318
:101DE0001360154B1B68144A43F07043136000F0F6
:101DF000DDF8124B00221A6000F0FCF8104B1B6853
:101E00000F4A43F040431360FFF766FF01F0DAF931
:101E1000FFF71EFF002318461837BD4680BD00BFE0
:101E200000ED00E071C20F4170C20F4100E400E01C
:101E30002C0B0020300B002020ED00E0400400209F
:101E400034EF00E080B483B000AF4FF0500383F371
:101E50001188BFF36F8FBFF34F8F7B6000BF0F4BB5
:101E60001B6801330D4A13600C4B1B68012B0FD10B
:101E70000B4B1B68DBB2002B0AD04FF0500383F3EF
:101E80001188BFF36F8FBFF34F8F3B6000BFFEE73A
:101E900000BF0C37BD465DF8047B7047400400204E
:101EA00004ED00E080B483B000AF124B1B68002B40
:101EB0000AD14FF0500383F31188BFF36F8FBFF344
:101EC0004F8F7B6000BFFEE70A4B1B68013B094A4E
:101ED0001360084B1B68002B05D100233B603B6857
:101EE00083F3118800BF00BF0C37BD465DF8047B4B
:101EF000704700BF40040020000000000000000008
:101F0000EFF30980BFF36F8F154B1A681EF0100FA7
:101F100008BF20ED108A20E9F04F10602DE909007C
:101F20004FF0500080F31188BFF34F8FBFF36F8FD6
:101F300001F048F94FF0000080F3118809BC1968DE
:101F40000868B0E8F04F1EF0100F08BFB0EC108A20
:101F500080F30988BFF36F8F704700BFAFF3008035
:101F6000740B002000BF00BF80B582B000AF4FF0FF
:101F7000500383F31188BFF36F8FBFF34F8F7B60E4
:101F800000BF01F065F80346002B03D0064B4FF06D
:101F900080521A6000233B603B6883F3118800BFC6
:101FA00000BF0837BD4680BD04ED00E080B400AF3F
:101FB0000B4B00221A600B4B00221A600A4B1B6865
:101FC0000A4AA2FB03239B09094A013B1360044B05
:101FD00007221A6000BFBD465DF8047B704700BF52
:101FE00010E000E018E000E034040020D34D62105F
:101FF00014E000E0DFF80C00016841F470010160BA
:10200000704700BF88ED00E080B485B000AFEFF30B
:102010000583FB60FB680F2B14D9174AFB68134438
:102020001B78FB72154B1B78FA7A9A420AD24FF052
:10203000500383F31188BFF36F8FBFF34F8F7B6023
:1020400000BFFEE70E4B1B6803F4E0620D4B1B68FC
:102050009A420AD94FF0500383F31188BFF36F8F70
:10206000BFF34F8F3B6000BFFEE700BF1437BD4694
:102070005DF8047B704700BFF0E300E02C0B00200C
:102080000CED00E0300B002080B584B000AF78602C
:1020900039607B68FB60FB68002B0AD14FF050036E
:1020A00083F31188BFF36F8FBFF34F8FBB6000BF07
:1020B000FEE7FFF7C7FEFB681A68FB68DB6BF96891
:1020C000096C01FB03F31A44FB689A60FB68002269
:1020D0009A63FB681A68FB685A60FB681A68FB68B9
:1020E000DB6B013BF968096C01FB03F31A44FB68E5
:1020F000DA60FB68FF2283F84420FB68FF2283F844
:1021000045203B68002B14D1FB681B69002B1AD0BB
:10211000FB681033184601F003F90346002B12D078
:102120000C4B4FF080521A60BFF34F8FBFF36F8F8D
:1021300009E0FB6810331846FFF7A2FCFB68243364
:102140001846FFF79DFCFFF7ADFE01231846103738
:10215000BD4680BD04ED00E080B58EB002AFF860F2
:10216000B9607A603B60FB68002B0AD14FF05003E6
:1021700083F31188BFF36F8FBFF34F8FBB6200BF34
:10218000FEE73B68002B0AD14FF0500383F3118820
:10219000BFF36F8FBFF34F8F7B6200BFFEE77B689B
:1021A000002B02D0BB68002B01D0012300E00023EC
:1021B000002B0AD14FF0500383F31188BFF36F8FC8
:1021C000BFF34F8F3B6200BFFEE77B68002B02D15D
:1021D000BB68002B01D1012300E00023002B0AD1B2
:1021E0004FF0500383F31188BFF36F8FBFF34F8F0E
:1021F000FB6100BFFEE750237B617B69502B0AD057
:102200004FF0500383F31188BFF36F8FBFF34F8FED
:10221000BB6100BFFEE77B693B68FB62FB6A002B8A
:102220000DD0FB6A012283F8462097F83820FB6A1C
:10223000009313467A68B968F86800F005F8FB6AFD
:1022400018463037BD4680BD80B584B000AFF86019
:10225000B9607A60FB70BB68002B03D1BB69BA69B7
:102260001A6002E0BB697A681A60BB69FA68DA63CF
:10227000BB69BA681A640121B869FFF705FFBB6939
:10228000FA7883F84C2000BF1037BD4680BD0000AF
:1022900080B58EB000AFF860B9607A603B60002313
:1022A0007B63FB683B633B6B002B0AD14FF0500311
:1022B00083F31188BFF36F8FBFF34F8FBB6200BFF3
:1022C000FEE7BB68002B03D13B6B1B6C002B01D1DD
:1022D000012300E00023002B0AD14FF0500383F3C9
:1022E0001188BFF36F8FBFF34F8F7B6200BFFEE794
:1022F0003B68022B03D13B6BDB6B012B01D101232C
:1023000000E00023002B0AD14FF0500383F3118823
:10231000BFF36F8FBFF34F8F3B6200BFFEE701F04B
:10232000BDF90346002B02D17B68002B01D10123AC
:1023300000E00023002B0AD14FF0500383F31188F3
:10234000BFF36F8FBFF34F8FFB6100BFFEE7FFF757
:1023500079FD3B6B9A6B3B6BDB6B9A4202D33B681C
:10236000022B29D13A68B968386B00F00BFAF86291
:102370003B6B5B6A002B10D03B6B2433184600F09C
:10238000CFFF0346002B13D03F4B4FF080521A6013
:10239000BFF34F8FBFF36F8F0AE0FB6A002B07D0AC
:1023A000394B4FF080521A60BFF34F8FBFF36F8FDE
:1023B000FFF778FD012363E07B68002B03D1FFF773
:1023C00071FD00235CE07B6B002B06D107F1140349
:1023D000184601F009F801237B63FFF763FD00F065
:1023E0007BFDFFF72FFD3B6B93F844305BB2B3F1FD
:1023F000FF3F03D13B6B002283F844203B6B93F8F3
:1024000045305BB2B3F1FF3F03D13B6B002283F851
:102410004520FFF747FD3A1D07F114031146184602
:1024200000F0F8FF0346002B24D1386B00F0A2FA2D
:102430000346002B18D03B6B10337A6811461846C0
:1024400000F01EFF386B00F02DFA00F053FD03463C
:10245000002B7FF47CAF0C4B4FF080521A60BFF31F
:102460004F8FBFF36F8F72E7386B00F01BFA00F0ED
:1024700041FD6CE7386B00F015FA00F03BFD0023DE
:1024800018463837BD4680BD04ED00E080B590B0F9
:1024900000AFF860B9607A603B60FB68BB63BB6B00
:1024A000002B0AD14FF0500383F31188BFF36F8FD5
:1024B000BFF34F8FBB6200BFFEE7BB68002B03D1A9
:1024C000BB6B1B6C002B01D1012300E00023002B10
:1024D0000AD14FF0500383F31188BFF36F8FBFF31E
:1024E0004F8F7B6200BFFEE73B68022B03D1BB6BC3
:1024F000DB6B012B01D1012300E00023002B0AD16B
:102500004FF0500383F31188BFF36F8FBFF34F8FEA
:102510003B6200BFFEE7FFF777FDEFF311824FF05C
:10252000500383F31188BFF36F8FBFF34F8FFA61AE
:10253000BB61FB697B63BB6B9A6BBB6BDB6B9A42CA
:1025400002D33B68022B2FD1BB6B93F8453087F841
:102550003330BB6B9B6BFB623A68B968B86B00F0B9
:1025600011F997F93330B3F1FF3F12D1BB6B5B6ABE
:10257000002B16D0BB6B2433184600F0D1FE034667
:10258000002B0ED07B68002B0BD07B6801221A60D9
:1025900007E097F833300133DBB25AB2BB6B83F8F4
:1025A00045200123FB6301E00023FB637B6B7B6120
:1025B0007B6983F3118800BFFB6B18464037BD462B
:1025C00080BD000080B58CB000AFF860B9607A6063
:1025D0000023FB62FB68BB62BB6A002B0AD14FF091
:1025E000500383F31188BFF36F8FBFF34F8F3B62AC
:1025F00000BFFEE7BB68002B03D1BB6A1B6C002B3E
:1026000001D1012300E00023002B0AD14FF0500339
:1026100083F31188BFF36F8FBFF34F8FFB6100BF50
:10262000FEE701F03BF80346002B02D17B68002B4C
:1026300001D1012300E00023002B0AD14FF0500309
:1026400083F31188BFF36F8FBFF34F8FBB6100BF60
:10265000FEE7FFF7F7FBBB6A9B6B7B627B6A002B95
:102660001FD0B968B86A00F0F7F87B6A5A1EBB6AD7
:102670009A63BB6A1B69002B0FD0BB6A10331846E4
:1026800000F04EFE0346002B07D03D4B4FF080522A
:102690001A60BFF34F8FBFF36F8FFFF703FC012367
:1026A00069E07B68002B03D1FFF7FCFB002362E0AD
:1026B000FB6A002B06D107F11003184600F094FEC8
:1026C0000123FB62FFF7EEFB00F006FCFFF7BAFB0D
:1026D000BB6A93F844305BB2B3F1FF3F03D1BB6AEE
:1026E000002283F84420BB6A93F845305BB2B3F113
:1026F000FF3F03D1BB6A002283F84520FFF7D2FBDE
:102700003A1D07F110031146184600F083FE0346F8
:10271000002B23D1B86A00F017F90346002B17D01D
:10272000BB6A24337A681146184600F0A9FDB86ADE
:1027300000F0B8F800F0DEFB0346002B89D1104B07
:102740004FF080521A60BFF34F8FBFF36F8F80E757
:10275000B86A00F0A7F800F0CDFB7AE7B86A00F09D
:10276000A1F800F0C7FBB86A00F0EEF80346002BB2
:102770003FF46FAF002318463037BD4680BD00BF21
:1027800004ED00E080B586B000AFF860B9607A6013
:1027900000237B61FB689B6B3B61FB681B6C002B20
:1027A0000DD1FB681B68002B4DD1FB689B68184658
:1027B00000F092FF7861FB6800229A6043E07B683A
:1027C000002B19D1FB685868FB681B6C1A46B96866
:1027D00001F074FCFB685A68FB681B6C1A44FB68C8
:1027E0005A60FB685A68FB689B689A422BD3FB6867
:1027F0001A68FB685A6026E0FB68D868FB681B6CA7
:102800001A46B96801F05AFCFB68DA68FB681B6C71
:102810005B421A44FB68DA60FB68DA68FB681B6895
:102820009A4207D2FB689A68FB681B6C5B421A44A9
:10283000FB68DA607B68022B05D13B69002B02D074
:102840003B69013B3B613B695A1CFB689A637B69AE
:1028500018461837BD4680BD80B582B000AF78609D
:1028600039607B681B6C002B18D07B68DA687B684A
:102870001B6C1A447B68DA607B68DA687B689B684B
:102880009A4203D37B681A687B68DA607B68D968F0
:102890007B681B6C1A46386801F010FC00BF0837D3
:1028A000BD4680BD80B584B000AF7860FFF7CAFA3E
:1028B0007B6893F84530FB7311E07B685B6A002B03
:1028C00012D07B682433184600F02AFD0346002B03
:1028D00001D000F001FEFB7B013BDBB2FB7397F9FB
:1028E0000F30002BE9DC00E000BF7B68FF2283F89B
:1028F0004520FFF7D7FAFFF7A5FA7B6893F8443035
:10290000BB7311E07B681B69002B12D07B6810330E
:10291000184600F005FD0346002B01D000F0DCFD59
:10292000BB7B013BDBB2BB7397F90E30002BE9DCBC
:1029300000E000BF7B68FF2283F84420FFF7B2FA73
:1029400000BF1037BD4680BD80B584B000AF786051
:10295000FFF778FA7B689B6B002B02D10123FB60A9
:1029600001E00023FB60FFF79DFAFB681846103773
:10297000BD4680BD80B584B000AF7860FFF762FAD5
:102980007B689A6B7B68DB6B9A4202D10123FB6008
:1029900001E00023FB60FFF785FAFB68184610375B
:1029A000BD4680BD80B485B000AF7860396000233B
:1029B000FB6014E00F4AFB6852F83330002B0BD158
:1029C0000C49FB683A6841F833200A4AFB68DB008F
:1029D00013447A685A6006E0FB680133FB60FB68C9
:1029E000072BE7D900BF00BF1437BD465DF8047B55
:1029F000704700BF340B002080B586B000AFF86090
:102A0000B9607A60FB687B61FFF71CFA7B6993F819
:102A100044305BB2B3F1FF3F03D17B69002283F8FE
:102A200044207B6993F845305BB2B3F1FF3F03D19B
:102A30007B69002283F84520FFF734FA7B699B6BA2
:102A4000002B06D17B6924337A68B968184600F0F8
:102A50003BFC7869FFF726FF00BF1837BD4680BDF5
:102A600080B58EB004AFF860B9607A603B607B6B74
:102A7000002B0AD14FF0500383F31188BFF36F8FFF
:102A8000BFF34F8F3B6200BFFEE7BB6B002B0AD149
:102A90004FF0500383F31188BFF36F8FBFF34F8F55
:102AA000FB6100BFFEE75C233B613B695C2B0AD006
:102AB0004FF0500383F31188BFF36F8FBFF34F8F35
:102AC000BB6100BFFEE73B69BB6B002B1ED07B6B7D
:102AD000002B1BD0BB6B7B627B6A7A6B1A637B6AB1
:102AE000022283F85920002303937B6A029307F1A3
:102AF000140301933B6B00933B687A68B968F868EC
:102B000000F050F8786A00F0DDF801E000237B6106
:102B10007B6918462837BD4680BD80B58CB004AFB0
:102B2000F860B9603B601346FB80FB889B00184649
:102B300001F09BFA78617B69002B0ED05C2001F0DC
:102B400094FAF861FB69002B03D0FB697A691A6378
:102B500005E0786901F097FA01E00023FB61FB6969
:102B6000002B17D0FB69002283F85920FA88002334
:102B70000393FB690293FB6A0193BB6A00933B6872
:102B8000B968F86800F00EF8F86900F09BF80123C6
:102B9000BB6102E04FF0FF33BB61BB6918462037D1
:102BA000BD4680BD80B588B000AFF860B9607A607E
:102BB0003B603B6B186B7B689B001A46A521FDF7B9
:102BC000CDFE3B6B1A6B7B6803F18043013B9B009E
:102BD0001344BB61BB6923F00703BB61BB6903F00E
:102BE0000703002B0AD04FF0500383F31188BFF383
:102BF0006F8FBFF34F8F7B6100BFFEE7BB68002B79
:102C00001FD00023FB6112E0BA68FB6913441978F6
:102C10003A6BFB69134434330A461A70BA68FB698D
:102C200013441B78002B06D0FB690133FB61FB6961
:102C30000F2BE9D900E000BF3B6B002283F8432053
:102C400003E03B6B002283F83420BB6A372B01D9A9
:102C50003723BB623B6BBA6ADA623B6BBA6ADA64EF
:102C60003B6B00221A653B6B04331846FEF728FFC6
:102C70003B6B18331846FEF723FF3B6B3A6B1A6128
:102C8000BB6AC3F138023B6B9A613B6B3A6B5A6289
:102C90003B6B00225A653B6B002283F858203A6850
:102CA000F968B869FEF7A0FF02463B6B1A60FB6A41
:102CB000002B02D0FB6A3A6B1A6000BF2037BD467A
:102CC00080BD000080B582B000AF7860FFF7BAF831
:102CD0002D4B1B6801332C4A13602C4B1B68002BB7
:102CE00009D12A4A7B681360274B1B68012B10D13E
:102CF00000F016FC0DE0264B1B68002B09D1234B7E
:102D00001B68DA6A7B68DB6A9A4202D81F4A7B68D2
:102D10001360204B1B6801331E4A13601D4B1A6859
:102D20007B685A647B68DA6A1B4B1B689A4203D93A
:102D30007B68DB6A184A13607B68DA6A13469B007B
:102D400013449B00154A1A447B6804331946104605
:102D5000FEF7C3FEFFF7A6F80D4B1B68002B0ED045
:102D60000A4B1B68DA6A7B68DB6A9A4207D20C4B13
:102D70004FF080521A60BFF34F8FBFF36F8F00BFC9
:102D80000837BD4680BD00BF48100020740B0020EE
:102D9000541000206410002050100020780B0020F8
:102DA00004ED00E080B584B000AF78600023FB60E4
:102DB0007B68002B17D0134B1B68002B0AD04FF0F9
:102DC000500383F31188BFF36F8FBFF34F8FBB6046
:102DD00000BFFEE700F080F80021786800F0EAFC10
:102DE00000F088F8F860FB68002B07D1064B4FF025
:102DF00080521A60BFF34F8FBFF36F8F00BF103741
:102E0000BD4680BD7010002004ED00E080B58AB0A2
:102E100004AF0023BB6000237B603A46391D07F1F5
:102E200008031846FEF7F8FD39687B68BA68029215
:102E300001930023009300230A4621492148FFF70C
:102E40000FFE0346204A13601F4B1B68002B02D065
:102E500001237B6101E000237B617B69012B02D1AF
:102E600000F0FCFC78617B69012B16D14FF0500318
:102E700083F31188BFF36F8FBFF34F8F3B6100BFA8
:102E8000124B4FF0FF321A60114B01221A60114BA6
:102E900000221A60FEF734FF0EE07B69B3F1FF3FBA
:102EA0000AD14FF0500383F31188BFF36F8FBFF344
:102EB0004F8FFB6000BFFEE700BF1837BD4680BDE7
:102EC000BC420208F13402086C1000206810002097
:102ED000541000204C10002080B400AF044B1B683D
:102EE0000133034A136000BFBD465DF8047B7047A1
:102EF0007010002080B584B000AF0023FB60002379
:102F0000BB60424B1B68002B0AD14FF0500383F388
:102F10001188BFF36F8FBFF34F8F3B6000BFFEE799
:102F2000FEF790FF394B1B68013B384A1360374B63
:102F30001B68002B62D1364B1B68002B5ED02FE044
:102F4000344BDB68DB68FB60FB6818331846FEF720
:102F500021FEFB6804331846FEF71CFEFB68DA6AA4
:102F60002D4B1B689A4203D9FB68DB6A2A4A13601F
:102F7000FB68DA6A13469B0013449B00274A1A44F5
:102F8000FB68043319461046FEF7A7FDFB68DA6AB2
:102F9000234B1B68DB6A9A4202D3224B01221A6040
:102FA0001C4B1B68002BCBD1FB68002B01D000F021
:102FB00055FB1D4B1B687B607B68002B10D000F01D
:102FC00047F80346002B02D0164B01221A607B689B
:102FD000013B7B607B68002BF1D1134B00221A6010
:102FE000104B1B68002B09D00123BB600F4B4FF027
:102FF00080521A60BFF34F8FBFF36F8FFEF752FFFF
:10300000BB6818461037BD4680BD00BF7010002059
:10301000481000200810002050100020780B0020DD
:10302000740B00205C1000205810002004ED00E01C
:1030300080B483B000AF054B1B687B607B6818468B
:103040000C37BD465DF8047B704700BF4C10002074
:1030500080B586B000AF00237B614F4B1B68002B0F
:1030600040F08F804D4B1B6801333B614B4A3B69FD
:1030700013603B69002B20D1494B1B681B68002B58
:103080000AD04FF0500383F31188BFF36F8FBFF363
:103090004F8F3B6000BFFEE7414B1B68FB60414B1D
:1030A0001B683F4A13603F4AFB6813603E4B1B6836
:1030B00001333D4A136000F0D1FA3C4B1B683A697A
:1030C0009A4249D3364B1B681B68002B04D1374BFF
:1030D0004FF0FF321A603FE0314B1B68DB68DB6862
:1030E000BB60BB685B687B603A697B689A4203D2CD
:1030F0002E4A7B6813602FE0BB6804331846FEF746
:1031000049FDBB689B6A002B04D0BB681833184686
:10311000FEF740FDBB68DA6A254B1B689A4203D96B
:10312000BB68DB6A224A1360BB68DA6A13469B00FD
:1031300013449B001F4A1A44BB68043319461046C7
:10314000FEF7CBFCBB68DA6A1B4B1B68DB6A9A4252
:10315000B8D301237B61B5E7174B1B68DA6A1549C1
:1031600013469B0013449B000B441B68012B01D9A1
:1031700001237B61114B1B68002B07D001237B616E
:1031800004E00F4B1B6801330D4A13607B6918463E
:103190001837BD4680BD00BF701000204C100020C5
:1031A0000010002004100020601000206810002093
:1031B00050100020780B0020740B00205C100020C1
:1031C0005810002080B485B000AF284B1B68002B3E
:1031D00003D0274B01221A6041E0254B00221A60E0
:1031E000244B1B68FB6010E0FB68002B0AD14FF0FA
:1031F000500383F31188BFF36F8FBFF34F8F7B6052
:1032000000BFFEE7FB68013BFB601B49FA68134601
:103210009B0013449B000B441B68002BE4D0FA680E
:1032200013469B0013449B00134A1344BB60BB68C6
:103230005B685A68BB685A60BB685A68BB680833E9
:103240009A4204D1BB685B685A68BB685A60BB6825
:103250005B68DB68094A1360064AFB68136000BFBD
:103260001437BD465DF8047B704700BF7010002026
:103270005C10002050100020780B0020740B002000
:1032800080B584B000AF786039607B68002B0AD1CC
:103290004FF0500383F31188BFF36F8FBFF34F8F4D
:1032A000FB6000BFFEE7074B1B68183319467868C0
:1032B000FEF737FC0121386800F07CFA00BF1037B8
:1032C000BD4680BD740B002080B586B000AFF860AD
:1032D000B9607A60FB68002B0AD14FF0500383F38A
:1032E0001188BFF36F8FBFF34F8F7B6100BFFEE785
:1032F0000A4B1B6818331946F868FEF7EEFB7B682B
:10330000002B02D04FF0FF33BB607968B86800F043
:1033100051FA00BF1837BD4680BD00BF740B0020B6
:1033200080B586B000AF78607B68DB68DB683B61A6
:103330003B69002B0AD14FF0500383F31188BFF390
:103340006F8FBFF34F8FFB6000BFFEE73B69183301
:103350001846FEF71FFC1E4B1B68002B1DD13B6956
:1033600004331846FEF716FC3B69DA6A194B1B68F2
:103370009A4203D93B69DB6A164A13603B69DA6AF1
:1033800013469B0013449B00134A1A443B690433C1
:1033900019461046FEF7A1FB05E03B6918331946B4
:1033A0000E48FEF79AFB3B69DA6A0D4B1B68DB6A35
:1033B0009A4205D901237B610A4B01221A6001E080
:1033C00000237B617B6918461837BD4680BD00BF6E
:1033D0007010002050100020780B002008100020F2
:1033E000740B00205C10002080B483B000AF7860C4
:1033F000064B1A687B681A60054B1A687B685A602E
:1034000000BF0C37BD465DF8047B7047601000209C
:103410004C10002080B588B000AF786039607B68C0
:10342000002B0AD14FF0500383F31188BFF36F8F45
:10343000BFF34F8F3B6100BFFEE73B68002B0AD113
:103440004FF0500383F31188BFF36F8FBFF34F8F9B
:10345000FB6000BFFEE7FEF7F5FC1D4B1B68BB6180
:103460007B685B68BA69D31A7B613B681B68B3F100
:10347000FF3F02D10023FB6123E07B681A68154BF4
:103480001B689A4207D07B685B68BA699A4202D38C
:103490000123FB6115E03B681B687A699A420BD2F5
:1034A0003B681A687B69D21A3B681A607868FFF734
:1034B0009BFF0023FB6104E03B6800221A600123AC
:1034C000FB61FEF7EFFCFB6918462037BD4680BD67
:1034D0004C1000206010002080B400AF034B01228C
:1034E0001A6000BFBD465DF8047B70475C10002089
:1034F00080B582B000AF786000F052F8064B1B68D0
:10350000012BF9D9054B4FF080521A60BFF34F8F52
:10351000BFF36F8FF0E700BF780B002004ED00E0F1
:1035200080B582B000AF00237B600CE07A68134660
:103530009B0013449B00124A13441846FEF7A0FA5E
:103540007B6801337B607B68372BEFD90D48FEF732
:1035500097FA0D48FEF794FA0C48FEF791FA0C48DA
:10356000FEF78EFA0B48FEF78BFA0B4B054A1A60F2
:103570000A4B054A1A6000BF0837BD4680BD00BF30
:10358000780B0020D80F0020EC0F0020081000203E
:103590001C10002034100020001000200410002017
:1035A00080B582B000AF19E0FEF74CFC104BDB6831
:1035B000DB687B607B6804331846FEF7EBFA0D4B43
:1035C0001B68013B0B4A13600B4B1B68013B0A4A0B
:1035D0001360FEF767FC786800F010F8064B1B6874
:1035E000002BE1D100BF00BF0837BD4680BD00BF42
:1035F0001C100020481000203010002080B584B03E
:1036000000AF78607B6893F85930002B08D17B6855
:103610001B6B184600F037FD786800F034FD18E0A9
:103620007B6893F85930012B03D1786800F02BFDAB
:103630000FE07B6893F85930022B0AD04FF050030B
:1036400083F31188BFF36F8FBFF34F8FFB6000BF11
:10365000FEE700BF1037BD4680BD000080B483B0D8
:1036600000AF0C4B1B681B68002B04D10A4B4FF0BA
:10367000FF321A6008E0074B1B68DB68DB687B6081
:103680007B685B68044A136000BF0C37BD465DF879
:10369000047B7047001000206810002080B483B0C5
:1036A00000AF0B4B1B68002B02D101237B6008E0AD
:1036B000084B1B68002B02D102237B6001E0002332
:1036C0007B607B6818460C37BD465DF8047B70470D
:1036D000541000207010002080B586B000AF7860D4
:1036E0007B683B6100237B617B68002B56D02E4BAF
:1036F0001B683A699A420AD04FF0500383F311884D
:10370000BFF36F8FBFF34F8FFB6000BFFEE73B69D6
:103710001B6D002B0AD14FF0500383F31188BFF3C8
:103720006F8FBFF34F8FBB6000BFFEE73B691B6D20
:103730005A1E3B691A653B69DA6A3B69DB6C9A423F
:103740002CD03B691B6D002B28D13B6904331846F4
:10375000FEF720FA3B69DA6C3B69DA623B69DB6AA7
:10376000C3F138023B699A613B69DA6A0F4B1B6807
:103770009A4203D93B69DB6A0C4A13603B69DA6AF7
:1037800013469B0013449B00094A1A443B690433C7
:1037900019461046FEF7A1F901237B617B691846A3
:1037A0001837BD4680BD00BF740B002050100020AC
:1037B000780B002080B584B000AF78603960214B71
:1037C0001B68FB60204B1B6804331846FEF7E2F9C8
:1037D0007B68B3F1FF3F0AD13B68002B07D01A4B3F
:1037E0001B68043319461948FEF777F926E0FA6892
:1037F0007B681344BB60144B1B68BA685A60BA6894
:10380000FB689A4209D2124B1A680F4B1B680433AB
:1038100019461046FEF785F910E00E4B1A680A4B60
:103820001B68043319461046FEF77BF90A4B1B68E8
:10383000BA689A4202D2084ABB68136000BF1037C8
:10384000BD4680BD4C100020740B002034100020B9
:1038500004100020001000206810002080B58AB0FD
:1038600004AF00237B6100F007FB1C4B1B68002B9F
:1038700021D00023FB600023BB603A1D07F1080143
:1038800007F10C031846FEF7E1F87968BB68FA689F
:10389000029201930223009300230A461049114823
:1038A000FFF7DEF80346104A13600F4B1B68002B2E
:1038B00001D001237B617B69002B0AD14FF05003BB
:1038C00083F31188BFF36F8FBFF34F8F3B6100BF4E
:1038D000FEE77B6918461837BD4680BDA41000205E
:1038E000C4420208213A0208A810002080B58AB01C
:1038F00000AFF860B9607A603B6000237B62FB68D0
:10390000002B0AD14FF0500383F31188BFF36F8F60
:10391000BFF34F8F3B6200BFFEE71A4B1B68002BC3
:103920002AD0BB683B617B687B61FB68BB61BB687D
:10393000052B18DCFFF7B2FE0346022B09D1114B11
:10394000186807F1100100233A6BFEF7A1FC7862BA
:1039500012E00C4B186807F1100100230022FEF75B
:1039600097FC786208E0074B186807F11001002304
:103970003A68FEF78BFD78627B6A18462837BD46A9
:1039800080BD00BFA410002080B588B002AF786071
:103990003960224B1B68DB68DB687B617B69043321
:1039A0001846FEF7F7F87B6993F8283003F0040314
:1039B000002B22D07B699A697B68D1187B683A68B2
:1039C000786900F0D1F80346002B1FD00023009344
:1039D00000237A6800217869FFF788FF38613B6926
:1039E000002B13D14FF0500383F31188BFF36F8F77
:1039F000BFF34F8FFB6000BFFEE77B6993F8283071
:103A000023F00103DAB27B6983F828207B691B6A03
:103A10007869984700BF1837BD4680BD9C100020CC
:103A200080B584B000AF786007F10803184600F055
:103A300057F8F860BB681946F86800F003F800F022
:103A4000D5F8F1E780B584B000AF78603960FFF752
:103A500043FA07F10803184600F066F8F860BB68FF
:103A6000002B30D13B68002B0AD17A68FB689A4260
:103A700006D8FFF73FFAF9687868FFF785FF24E07A
:103A80003B68002B08D0134B1B681B68002B01D12F
:103A9000012300E000233B600F4B18687A68FB6845
:103AA000D31A3A681946FEF7A7FFFFF723FA034631
:103AB000002B0AD1094B4FF080521A60BFF34F8F91
:103AC000BFF36F8F01E0FFF715FA00BF1037BD4657
:103AD00080BD00BFA0100020A410002004ED00E075
:103AE00080B485B000AF78600E4B1B681B68002B5C
:103AF00001D1012200E000227B681A607B681B680C
:103B0000002B05D1074B1B68DB681B68FB6001E0DD
:103B10000023FB60FB6818461437BD465DF8047B44
:103B2000704700BF9C10002080B584B000AF786063
:103B3000FFF77EFAF8600B4B1B68FA689A4205D2D1
:103B400000F036F97B6801221A6002E07B680022EF
:103B50001A60044AFB681360FB6818461037BD46BC
:103B600080BD00BFAC10002080B586B000AFF8600B
:103B7000B9607A603B6000237B61FB68BA685A6079
:103B8000FB68FA681A61BA687B689A4212D87A6848
:103B90003B68D21AFB689B699A4202D301237B617E
:103BA0001BE0104B1A68FB68043319461046FDF7FA
:103BB000B8FF12E07A683B689A4206D2BA683B685E
:103BC0009A4202D301237B6107E0074B1A68FB6826
:103BD000043319461046FDF7A4FF7B6918461837D1
:103BE000BD4680BDA01000209C10002080B58EB086
:103BF00002AFCAE07B68002B18DA3B1D0433FB627E
:103C0000FB6A002B0AD14FF0500383F31188BFF3F6
:103C10006F8FBFF34F8FFB6100BFFEE7FB6A1B682E
:103C2000FA6A5068FA6A9268114698477B68002BD6
:103C3000C0F2AA80FB68BB62BB6A5B69002B04D040
:103C4000BB6A04331846FDF7A5FF3B461846FFF74D
:103C50006BFF78627B68092B00F2978001A252F813
:103C600023F000BF8D3C02088D3C02088D3C020809
:103C7000013D0208153D02085F3D02088D3C020827
:103C80008D3C0208013D0208153D0208BB6A93F80D
:103C9000283043F00103DAB2BB6A83F82820BA68FF
:103CA000BB6A9B69D118BB687A6AB86AFFF75CFF88
:103CB0000346002B69D0BB6A1B6AB86A9847BB6A87
:103CC00093F8283003F00403002B5ED0BA68BB6A77
:103CD0009B691A440023009300230021B86AFFF770
:103CE00005FE38623B6A002B4FD14FF0500383F33F
:103CF0001188BFF36F8FBFF34F8FBB6100BFFEE72B
:103D0000BB6A93F8283023F00103DAB2BB6A83F868
:103D100028203AE0BB6A93F8283043F00103DAB276
:103D2000BB6A83F82820BA68BB6A9A61BB6A9B6940
:103D3000002B0AD14FF0500383F31188BFF36F8F2C
:103D4000BFF34F8F7B6100BFFEE7BB6A9A697B6A56
:103D5000D1187B6A7A6AB86AFFF706FF15E0BB6A7A
:103D600093F8283003F00203002B03D1B86A00F067
:103D70008AF90AE0BB6A93F8283023F00103DAB22B
:103D8000BB6A83F8282000E000BF084B1B68391D80
:103D900000221846FEF716FC0346002B7FF42AAFDC
:103DA00000BF00BF3037BD4680BD00BFA41000205B
:103DB00080B588B002AF48E02D4B1B68DB681B68FC
:103DC0003B612B4B1B68DB68DB68FB60FB680433E3
:103DD0001846FDF7DFFEFB681B6AF8689847FB682A
:103DE00093F8283003F00403002B2ED0FB689B6966
:103DF0003A691344BB60BA683B699A420ED9FB68C2
:103E0000BA685A60FB68FA681A61194B1A68FB684D
:103E1000043319461046FDF784FE16E00023009394
:103E200000233A690021F868FFF760FD78607B683D
:103E3000002B0AD14FF0500383F31188BFF36F8F2B
:103E4000BFF34F8F3B6000BFFEE7094B1B681B6849
:103E5000002BB1D1064B1B687B61064B1B68044AE3
:103E60001360044A7B69136000BF1837BD4680BDEC
:103E70009C100020A010002080B582B002AFFDF79A
:103E8000E1FF154B1B68002B20D11448FDF7F8FD0E
:103E90001348FDF7F5FD134B104A1A60124B104AF8
:103EA0001A6000230093114B114A10210A20FEF7DB
:103EB00053F90346084A1360074B1B68002B05D0D3
:103EC000054B1B680B491846FEF76CFDFDF7EAFF32
:103ED00000BFBD4680BD00BFA410002074100020AC
:103EE000881000209C100020A010002050110020FD
:103EF000B0100020CC420208DFF834D00D480E4943
:103F00000E4A002302E0D458C4500433C4188C4233
:103F1000F9D30B4A0B4C002301E013600432A24298
:103F2000FBD3FCF7B3FEFCF7F5FCFCF7D9FD7047BB
:103F30000000042000000020480400202043020864
:103F400048040020B4110020FEE7000080B584B0D2
:103F500000AF78603960244B1B68002B0ED1234AD8
:103F6000234BD31AA3F50073224A13601F4A204B38
:103F7000D31AA3F500731A461B4B1A60FFF78EFB8A
:103F80000346012B01D16B4600E01B4BFB60FEF7A3
:103F9000A3FF1A4B1A683B681344FA689A4207D287
:103FA0007B680C221A60FEF7A5FF4FF0FF3317E085
:103FB000124B1B68BB60114B1A683B6813440F4AD5
:103FC00013600C4B1A683B68D31A0A4A13600C4BF7
:103FD0001A683B6813440A4A1360FEF78BFFBB68FC
:103FE00018461037BD4680BDA411002000000420F3
:103FF000B8110020A011002000FE0320440400207E
:10400000A811002080B586B000AF7860EFF305837B
:104010003B613B69002B02D10023FB6001E00123DF
:10402000FB60FB68002B14BF01230023FB75FB7DA5
:10403000002B0AD04FF0500383F31188BFF36F8F2A
:10404000BFF34F8FBB6000BFFEE7FEF745FF00BF29
:104050001837BD4680BD80B582B000AF7860FEF7EE
:1040600049FF00BF0837BD4680BD80B584B000AFB2
:104070007860786800F012F80346FB60FB68184629
:104080001037BD4680BD80B582B000AF78607868DB
:1040900000F00CF800BF0837BD4680BD024B01465A
:1040A000186800F085B800BF00000020024B0146F0
:1040B000186800F011B800BF000000200A449142C7
:1040C00000F1FF3300D1704710B511F8014B03F830
:1040D000014F9142F9D110BD37B5002944D051F8B4
:1040E000043C0190002BA1F10404B8BFE418FFF7D1
:1040F00089FF1E4A0198136833B96360146003B0E6
:10410000BDE83040FFF7A7BFA34208D92568611971
:104110008B4201BF19685B6849192160EDE71A46B7
:104120005B680BB1A342FAD911685518A5420BD1AF
:10413000246821445418A3421160E0D11C685B68D4
:10414000536021441160DAE702D90C230360D6E7FB
:10415000256861198B4204BF19685B68636004BFFE
:10416000491921605460CAE703B030BDAC1100208A
:1041700070B50E4E0C463168054611B9FFF7E6FEE4
:10418000306021462846FFF7E1FE431C0AD0C41CDC
:1041900024F00304A04207D0211A2846FFF7D6FED8
:1041A000013001D14FF0FF34204670BDB011002026
:1041B0002DE9F041CD1C25F0030508350C2D38BF45
:1041C0000C25002D074601DBA94205D90C233B60D5
:1041D00000263046BDE8F0812E4EFFF713FF33680E
:1041E0001C4634BB29463846FFF7C2FF431C044631
:1041F0004DD134682646002E40D1236831463846DA
:1042000004EB0308FFF7A2FE80453AD1216803358D
:104210006D1A25F0030508350C2D38BF0C252946ED
:104220003846FFF7A5FF01302BD023682B442360CD
:104230000EE02268521B1ED40B2A16D96119A34224
:10424000256018BF5960636808BF316062514B60D8
:10425000384604F10B06FFF7FEFE26F00706231D85
:10426000F21AB6D09B1BA350B3E76268A3420CBFFF
:1042700032605A60ECE723466468B2E734467668F9
:10428000B9E70C233B603846FFF7E5FEA1E7256060
:10429000DEE700BFAC110020F8B500BFF8BC08BCD9
:1042A0009E467047F8B500BFF8BC08BC9E467047F4
:1042B00064656661756C745461736B0049444C4568
:1042C00000000000546D722053766300546D7251EB
:1042D0000000000008000020B042020800000000BA
:1042E00000000000000000000000000000020000CC
:1042F00018000000000000000000000000000000A6
:0C43000000000000010203040607080989
:08430C0034C3FF7F0100000033
:08431400010A0208F505020888
:04431C00D1050208BD
:10432000080000200000000000000000F40200204F
:104330005C030020C4030020000000000000000017
:10434000000000000000000000000000000000006D
:10435000000000000000000000000000000000005D
:10436000000000000000000000000000000000004D
:10437000000000000000000000000000000000003D
:10438000000000000000000000000000000000002D
:10439000000000000000000000000000000000001D
:1043A000000000000000000000000000000000000D
:1043B00000000000000000000000000000000000FD
:1043C00000000000000000000000000000000000ED
:1043D00001000000000000000E33CDAB34126DE68A
:1043E000ECDE05000B0000000000000000000000F3
:1043F00000000000000000000000000000000000BD
:1044000000000000000000000000000000000000AC
:10441000000000000000000000000000000000009C
:10442000000000000000000000000000000000008C
:10475000640400200024F4001000000001000000A8
:08476000AAAAAAAAB8110020C0
:0400000508023EF9B6
:00000001FF
