:020000040800F2
:10000000000004208D670008310D0008370D00083E
:100010003D0D0008430D0008490D000800000000D8
:10002000000000000000000000000000C12D0008DA
:100030004F0D0008000000001130000805290008DD
:10004000DD670008DD670008DD670008DD67000880
:10005000DD670008DD670008DD670008DD67000870
:10006000DD670008DD670008DD670008DD67000860
:10007000DD670008DD670008DD670008DD67000850
:10008000DD670008DD670008DD670008DD67000840
:100090005D0D0008710D0008DD670008DD670008D0
:1000A000DD670008DD670008DD670008DD67000820
:1000B000DD670008DD670008DD670008DD67000810
:1000C000DD670008DD670008DD670008DD67000800
:1000D000DD670008DD670008DD670008DD670008F0
:1000E000DD670008DD670008DD670008DD670008E0
:1000F000DD670008DD670008DD670008DD670008D0
:1001000000000000DD670008DD670008DD6700080B
:100110000000000000000000850D0008DD670008F9
:10012000DD670008DD670008DD670008DD6700089F
:10013000DD670008DD670008DD670008DD6700088F
:10014000DD670008DD670008DD670008DD6700087F
:10015000DD670008DD670008DD670008DD6700086F
:10016000DD670008DD6700080000000000000000F7
:10017000000000000000000000000000000000007F
:10018000DD670008DD6700080000000000000000D7
:10019000DD670008DD6700080000000000000000C7
:1001A000000000000000000000000000000000004F
:1001B000DD6700080000000000000000DD670008A7
:0401C000DD670008EF
:1001D00010B5054C237833B9044B13B10448AFF381
:1001E00000800123237010BD48040020000000009F
:1001F000206C000808B5034B1BB103490348AFF35B
:10020000008008BD000000004C040020206C0008A5
:10021000F0B400EB4003DFF8880000EBC30000F10E
:1002200018063069F7687568874232D3B368DC1BFB
:10023000631E934214D37D19D01900BF11F8013BFE
:1002400005F8013B013A05D011F8013B05F8013BE7
:10025000013AF3D1BFF35F8FF0600120F0BC70472B
:10026000C018904219D37819121B11F8013B00F8FD
:10027000013B013CF9D1141C05D011F8013B05F8F4
:10028000013B013AF9D1BFF35F8FF4600120F0BC6C
:100290007047C01B01389042CDD20020F0BC70479F
:1002A0001C40002053B94AB9002908BF00281CBFD0
:1002B0004FF0FF314FF0FF3000F074B9ADF1080C92
:1002C0006DE904CE00F006F8DDF804E0DDE9022374
:1002D00004B070472DE9F047089D04468E46002B78
:1002E0004DD18A42944669D9B2FA82F252B101FAEA
:1002F00002F3C2F1200120FA01F10CFA02FC41EAFA
:10030000030E94404FEA1C48210CBEFBF8F61FFA7E
:100310008CF708FB16E341EA034306FB07F1994219
:100320000AD91CEB030306F1FF3080F01F819942CC
:1003300040F21C81023E63445B1AA4B2B3FBF8F0A6
:1003400008FB103344EA034400FB07F7A7420AD92D
:100350001CEB040400F1FF3380F00A81A74240F255
:1003600007816444023840EA0640E41B00261DB1C0
:10037000D4400023C5E900433146BDE8F0878B42F5
:1003800009D9002D00F0EF800026C5E900013046B4
:100390003146BDE8F087B3FA83F6002E4AD18B428E
:1003A00002D3824200F2F980841A61EB0303012038
:1003B0009E46002DE0D0C5E9004EDDE702B9FFDE24
:1003C000B2FA82F2002A40F09280A1EB0C014FEACF
:1003D0001C471FFA8CFE0126200CB1FBF7F307FB2C
:1003E000131140EA01410EFB03F0884208D91CEBCF
:1003F000010103F1FF3802D2884200F2CB8043466C
:10040000091AA4B2B1FBF7F007FB101144EA01444A
:100410000EFB00FEA64508D91CEB040400F1FF31D9
:1004200002D2A64500F2BB800846A4EB0E0440EAC7
:1004300003409CE7C6F12007B34022FA07FC4CEAD0
:10044000030C20FA07F401FA06F31C43F9404FEAC3
:100450001C4900FA06F3B1FBF9F8200C1FFA8CFED8
:1004600009FB181140EA014108FB0EF0884202FA2C
:1004700006F20BD91CEB010108F1FF3A80F08880ED
:10048000884240F28580A8F102086144091AA4B2AA
:10049000B1FBF9F009FB101144EA014100FB0EFE2B
:1004A0008E4508D91CEB010100F1FF346CD28E455A
:1004B0006AD90238614440EA0840A0FB0294A1EBEB
:1004C0000E01A142C846A64656D353D05DB1B3EB48
:1004D000080261EB0E0101FA07F722FA06F3F14078
:1004E0001F43C5E9007100263146BDE8F087C2F11F
:1004F0002003D8400CFA02FC21FA03F39140014397
:100500004FEA1C471FFA8CFEB3FBF7F007FB1036CF
:100510000B0C43EA064300FB0EF69E4204FA02F47B
:1005200008D91CEB030300F1FF382FD29E422DD9CE
:10053000023863449B1B89B2B3FBF7F607FB163303
:1005400041EA034106FB0EF38B4208D91CEB010183
:1005500006F1FF3816D28B4214D9023E6144C91A03
:1005600046EA004638E72E46284605E70646E3E613
:100570001846F8E64B45A9D2B9EB020864EB0C0E1D
:100580000138A3E74646EAE7204694E74046D1E72C
:10059000D0467BE7023B614432E7304609E76444DA
:1005A000023842E7704700BF70B50D4E0D4D761B07
:1005B000B61006D0002455F8043B01349847A642F3
:1005C000F9D1094E094D761B06F02AFBB61006D06C
:1005D000002455F8043B01349847A642F9D170BD78
:1005E0008C6D00088C6D0008946D00088C6D0008FF
:1005F000830730B548D0541E002A3FD0CAB2034604
:1006000001E0013C3AD303F8012B9D07F9D1032CFB
:100610002DD9CDB245EA05250F2C45EA054536D939
:10062000A4F1100222F00F0C03F1200EE6444FEA71
:10063000121C03F1100242E9045542E9025510323E
:100640007245F8D10CF1010214F00C0F03EB021209
:1006500004F00F0C13D0ACF1040323F003030433B4
:10066000134442F8045B9342FBD10CF003042CB119
:10067000CAB21C4403F8012B9C42FBD130BD644636
:100680001346002CF4D1F9E703461446BFE71A4697
:10069000A446E0E7024B13B1024800F005B87047EA
:1006A00000000000B5060008002301461A4618465F
:1006B00000F01AB838B5084B084D5B1B9C1007D0EA
:1006C000043B1D44013C55F804399847002CF9D1EE
:1006D000BDE8384006F0AABA986D0008946D00088D
:1006E000704700BF704700BF2DE9F047DFF880A0DA
:1006F0000646DAF8000098460F469146FFF7F0FFED
:100700001A4B1B68D3F8484124B365681F2D26DCBB
:100710005EB96B1C0235DAF80000636044F825709E
:10072000FFF7E0FF0020BDE8F08704EB850101231F
:10073000C1F88890D4F88821AB401A43022EC4F83F
:100740008821C1F80881E4D1D4F88C211343C4F87E
:100750008C31DEE703F5A674C3F84841D5E7DAF833
:100760000000FFF7BFFF4FF0FF30DCE7DC6C000854
:100770003004002080B500AF02F058F800F036F8E1
:1007800000F0EAF800F09CF800F0D2F802F0D4F89B
:100790000D4A00210D4802F019F903460C4A136076
:1007A0000C4A00210C4802F011F903460B4A136071
:1007B0000B4A00210B4802F009F903460A4A13606C
:1007C00002F0DEF8FEE700BFE06C00088D0A0008CA
:1007D00098040020046D00089D0A000828110020DC
:1007E000286D0008AD0A0008B81D002080B594B03F
:1007F00000AF07F11C03342200211846FFF7F8FE72
:1008000007F1080300221A605A609A60DA601A61E0
:1008100000237B60284B1B6C274A43F080531364F2
:10082000254B1B6C03F080537B607B6800233B608F
:10083000224B1B68214A43F4404313601F4B1B6843
:1008400003F440433B603B680123FB614FF480337A
:100850003B6202237B634FF48003BB630823FB638B
:10086000C0233B6402237B640223BB640223FB643A
:1008700007F11C03184601F069F80346002B01D06C
:1008800000F02EF90F23BB600223FB6000233B61C5
:100890004FF480537B610023BB6107F10803032100
:1008A000184601F0D7FA0346002B01D000F018F9E2
:1008B00000BF5037BD4680BD003802400070004088
:1008C00080B500AF184B194A1A60174B06225A60C0
:1008D000154B00229A60144B4FF04072DA60124BB5
:1008E0004FF440221A61104B4FF480125A610E4BA4
:1008F00000221A760C4B01225A760B4B00229A7674
:10090000094B0122DA76084B01221A77064B0122A5
:100910005A77054800F052FA0346002B01D000F048
:10092000DFF800BF80BD00BF680400200064004005
:1009300080B500AF064B074A1A60054800F072FD0B
:100940000346002B01D000F0CBF800BF80BD00BFF4
:10095000900400200030024080B58AB000AF07F15B
:10096000140300221A605A609A60DA601A61002348
:100970003B61424B1B6B414A43F0040313633F4B03
:100980001B6B03F004033B613B690023FB603B4BA3
:100990001B6B3A4A43F080031363384B1B6B03F025
:1009A0008003FB60FB680023BB60344B1B6B334A46
:1009B00043F001031363314B1B6B03F00103BB6076
:1009C000BB6800237B602D4B1B6B2C4A43F002035A
:1009D00013632A4B1B6B03F002037B607B680022CE
:1009E0004FF40051264800F097FF0022602125486F
:1009F00000F092FF002240F20241234800F08CFFF9
:100A00004FF400537B610123BB610023FB61002392
:100A10003B6207F114031946194800F001FE6023F8
:100A20007B610123BB610023FB6100233B6207F173
:100A300014031946134800F0F3FD40F202437B61B2
:100A40000123BB610023FB6100233B6207F1140318
:100A500019460D4800F0E4FD4FF480537B610023FC
:100A6000BB610123FB6107F114031946064800F03E
:100A7000D7FD00BF2837BD4680BD00BF003802400B
:100A800000080240000002400004024080B582B02D
:100A900000AF7860012002F02CF8FBE780B582B04F
:100AA00000AF7860012002F024F8FBE780B582B047
:100AB00000AF7860012002F01CF8FBE780B582B03F
:100AC00000AF78607B681B68044A934201D101F053
:100AD000CFFE00BF0837BD4680BD00BF00100040FC
:100AE00080B400AF72B600BFFEE7000080B582B0F0
:100AF00000AF00237B60124B5B6C114A43F48043D0
:100B000053640F4B5B6C03F480437B607B68002372
:100B10003B600B4B1B6C0A4A43F080531364084B39
:100B20001B6C03F080533B603B6800220F216FF089
:100B3000010000F04BFD00BF0837BD4680BD00BF7F
:100B40000038024080B58AB000AF786007F1140326
:100B500000221A605A609A60DA601A617B681B682A
:100B6000214A93423CD100233B61204B1B6C1F4A1E
:100B700043F0007313641D4B1B6C03F000733B6167
:100B80003B690023FB60194B1B6B184A43F00203BF
:100B90001363164B1B6B03F00203FB60FB684FF4FF
:100BA00040737B610223BB610023FB6103233B6233
:100BB00008237B6207F1140319460D4800F030FD4D
:100BC00000220521142000F001FD142000F01AFD80
:100BD00000220521152000F0F9FC152000F012FD7F
:100BE00000BF2837BD4680BD006400400038024089
:100BF0000004024080B485B000AF78607B681B6859
:100C00000B4A93420DD10023FB600A4B1B6B094A30
:100C100043F480531363074B1B6B03F48053FB6057
:100C2000FB6800BF1437BD465DF8047B704700BF0A
:100C3000003002400038024080B58EB000AF7860CE
:100C40000023FB620023BB620023FB60334B1B6C61
:100C5000324A43F010031364304B1B6C03F0100353
:100C6000FB60FB6807F1100207F1140311461846F8
:100C700001F0FCFA3B6AFB62FB6A002B03D101F036
:100C8000E1FA786304E001F0DDFA03465B007B6380
:100C90007B6B234AA2FB03239B0C013BBB62214BD2
:100CA000214A1A601F4B40F2E732DA601D4ABB6AE4
:100CB00053601C4B00221A611A4B00229A60194B98
:100CC00000229A61174801F017FB034687F833307A
:100CD00097F83330002B1BD1124801F067FB034615
:100CE00087F8333097F83330002B11D1362000F0DD
:100CF00089FC7B680F2B08D800227968362000F029
:100D000065FC0A4A7B68136002E0012387F83330F0
:100D100097F8333018463837BD4680BD003802405A
:100D200083DE1B43482A00200010004038040020C6
:100D300080B400AFFEE780B400AFFEE780B400AF40
:100D4000FEE780B400AFFEE780B400AFFEE780B4FA
:100D500000AF00BFBD465DF8047B704780B500AFB3
:100D6000024800F026F900BF80BD00BF68040020E3
:100D700080B500AF024800F01CF900BF80BD00BF85
:100D80006804002080B500AF024801F07FFB00BF7F
:100D900080BD00BF482A002080B400AF064BD3F8C6
:100DA0008830054A43F47003C2F8883000BFBD465E
:100DB0005DF8047B704700BF00ED00E080B584B0B3
:100DC00000AF78607B68002B01D10123EDE07B68E8
:100DD00093F82030DBB2002B02D17868FFF7B2FE27
:100DE0007B681B681A687B681B6842F001021A6006
:100DF00001F052FDF86012E001F04EFD0246FB6882
:100E0000D31A0A2B0BD97B685B6A43F400327B68E8
:100E10005A627B68052283F820200123C5E07B68A5
:100E20001B685B6803F00103002BE5D07B681B683F
:100E30001A687B681B6822F002021A6001F02CFD20
:100E4000F86012E001F028FD0246FB68D31A0A2B75
:100E50000BD97B685B6A43F400327B685A627B681B
:100E6000052283F8202001239FE07B681B685B68D4
:100E700003F00203002BE5D17B681B7E012B08D118
:100E80007B681B681A687B681B6842F080021A60E6
:100E900007E07B681B681A687B681B6822F0800289
:100EA0001A607B685B7E012B08D17B681B681A681F
:100EB0007B681B6842F040021A6007E07B681B6891
:100EC0001A687B681B6822F040021A607B689B7E70
:100ED000012B08D17B681B681A687B681B6842F08D
:100EE00020021A6007E07B681B681A687B681B6831
:100EF00022F020021A607B68DB7E012B08D17B6820
:100F00001B681A687B681B6822F010021A6007E0F1
:100F10007B681B681A687B681B6842F010021A60C5
:100F20007B681B7F012B08D17B681B681A687B6874
:100F30001B6842F008021A6007E07B681B681A68A9
:100F40007B681B6822F008021A607B685B7F012BBC
:100F500008D17B681B681A687B681B6842F0040232
:100F60001A6007E07B681B681A687B681B6822F0C0
:100F700004021A607B689A687B68DB681A437B68A6
:100F80001B691A437B685B6942EA03017B685B6803
:100F90005A1E7B681B680A43DA617B6800225A622A
:100FA0007B68012283F82020002318461037BD46B5
:100FB00080BD80B58AB000AF786000237B627B681B
:100FC0001B685B693B627B681B685B68FB617B68D5
:100FD0001B689B68BB617B681B68DB687B617B6807
:100FE0001B681B693B617B681B689B69FB603B6AF4
:100FF00003F00103002B7CD0BB6903F00103002B3D
:1010000023D07B681B6801229A60BB6903F002034E
:10101000002B03D0786800F083F916E0BB6903F079
:101020000403002B04D07B6A43F400637B620CE072
:10103000BB6903F00803002B04D07B6A43F48053A0
:101040007B6202E0786800F089F9BB6903F4807381
:10105000002B24D07B681B684FF480729A60BB69B8
:1010600003F40073002B03D0786800F063F916E0F6
:10107000BB6903F48063002B04D07B6A43F4005304
:101080007B620CE0BB6903F40063002B04D07B6A35
:1010900043F480437B6202E0786800F069F9BB6941
:1010A00003F48033002B24D07B681B684FF480321C
:1010B0009A60BB6903F40033002B03D0786800F01A
:1010C00043F916E0BB6903F48023002B04D07B6A4C
:1010D00043F400437B620CE0BB6903F40023002B64
:1010E00004D07B6A43F480337B6202E0786800F0CE
:1010F00049F93B6A03F00803002B0CD07B6903F02D
:101100001003002B07D07B6A43F400737B627B687B
:101110001B681022DA603B6A03F00403002B0BD03B
:101120007B6903F00803002B06D07B681B6808224C
:10113000DA60786800F03AF93B6A03F00203002BAA
:1011400009D07B681B68DB6803F00303002B02D027
:10115000786800F021F93B6A03F04003002B0CD0C3
:101160003B6903F01003002B07D07B6A43F48063D4
:101170007B627B681B6810221A613B6A03F02003C4
:10118000002B0BD03B6903F00803002B06D07B68D3
:101190001B6808221A61786800F01CF93B6A03F0AA
:1011A0001003002B09D07B681B681B6903F0030345
:1011B000002B02D0786800F003F93B6A03F4003397
:1011C000002B0BD0FB6903F01003002B06D07B68CB
:1011D0001B6810225A60786800F006F93B6A03F435
:1011E0008033002B0BD0FB6903F00803002B06D0E3
:1011F0007B681B6808225A60786800F0FFF83B6A39
:1012000003F40043002B7BD0FB6903F00403002BA5
:1012100072D03B6A03F48073002B08D0FB6803F0A4
:101220000103002B03D07B6A43F001037B623B6A1E
:1012300003F40073002B08D0FB6803F00203002BBB
:1012400003D07B6A43F002037B623B6A03F4806352
:10125000002B08D0FB6803F00403002B03D07B6A4B
:1012600043F004037B623B6A03F40063002B43D02A
:10127000FB6803F07003002B3ED0FB6803F07003A3
:10128000602B2BD0602B2ED8502B22D0502B2AD85D
:10129000402B19D0402B26D8302B10D0302B22D801
:1012A000102B02D0202B05D01DE07B6A43F00803F1
:1012B0007B6219E07B6A43F010037B6214E07B6A77
:1012C00043F020037B620FE07B6A43F040037B62C4
:1012D0000AE07B6A43F080037B6205E07B6A43F4AB
:1012E00080737B6200E000BF7B681B689A697B6843
:1012F0001B6822F070029A617B681B6804225A60A6
:101300007B6A002B08D07B685A6A7B6A1A437B6829
:101310005A62786800F07CF800BF2837BD4680BD6F
:1013200080B483B000AF786000BF0C37BD465DF875
:10133000047B704780B483B000AF786000BF0C3787
:10134000BD465DF8047B704780B483B000AF786021
:1013500000BF0C37BD465DF8047B704780B483B096
:1013600000AF786000BF0C37BD465DF8047B704766
:1013700080B483B000AF786000BF0C37BD465DF825
:10138000047B704780B483B000AF786000BF0C3737
:10139000BD465DF8047B704780B483B000AF7860D1
:1013A00000BF0C37BD465DF8047B704780B483B046
:1013B00000AF786000BF0C37BD465DF8047B704716
:1013C00080B483B000AF786000BF0C37BD465DF8D5
:1013D000047B704780B483B000AF786000BF0C37E7
:1013E000BD465DF8047B704780B483B000AF786081
:1013F00000BF0C37BD465DF8047B704780B483B0F6
:1014000000AF786000BF0C37BD465DF8047B7047C5
:1014100080B483B000AF786000BF0C37BD465DF884
:10142000047B704780B582B000AF78607B68002B8A
:1014300001D101230EE07B685B79DBB2002B05D183
:101440007B6800221A717868FFF7D4FB7B68012261
:101450005A71002318460837BD4680BD80B485B058
:1014600000AF78607B6803F00703FB600C4BDB6820
:10147000BB60BA684FF6FF031340BB60FB681A02FB
:10148000BB68134343F0BF6343F40033BB60044ABB
:10149000BB68D36000BF1437BD465DF8047B70475E
:1014A00000ED00E080B400AF044BDB681B0A03F0E2
:1014B00007031846BD465DF8047B704700ED00E069
:1014C00080B483B000AF0346FB7197F90730002B5F
:1014D0000BDBFB7903F01F02074997F907305B0923
:1014E000012000FA02F241F8232000BF0C37BD466C
:1014F0005DF8047B704700BF00E100E080B483B07A
:1015000000AF03463960FB7197F90730002B0ADB07
:101510003B68DAB20C4997F907301201D2B20B449A
:1015200083F800230AE03B68DAB20849FB7903F04C
:101530000F03043B1201D2B20B441A7600BF0C37E2
:10154000BD465DF8047B704700E100E000ED00E07F
:1015500080B489B000AFF860B9607A60FB6803F0CE
:101560000703FB61FB69C3F10703042B28BF0423B6
:10157000BB61FB690433062B02D9FB69033B00E026
:1015800000237B614FF0FF32BB6902FA03F3DA43B9
:10159000BB681A407B699A404FF0FF317B6901FAC2
:1015A00003F3D9437B680B40134318462437BD46E9
:1015B0005DF8047B704780B582B000AF78607868D2
:1015C000FFF74CFF00BF0837BD4680BD80B586B031
:1015D00000AF0346B9607A60FB7300237B61FFF7BD
:1015E00061FF78617A68B9687869FFF7B1FF0246F0
:1015F00097F90F3011461846FFF780FF00BF1837E4
:10160000BD4680BD80B582B000AF0346FB7197F93F
:1016100007301846FFF754FF00BF0837BD4680BDAE
:1016200080B489B000AF7860396000237B6100230B
:101630003B610023BB610023FB6153E10122FB6995
:1016400002FA03F37B613B681B687A6913403B61D4
:101650003A697B699A4240F042813B685B6803F0DB
:101660000303012B05D03B685B6803F00303022BE7
:1016700030D17B689B68BB61FB695B00032202FA87
:1016800003F3DB43BA691340BB613B68DA68FB696B
:101690005B0002FA03F3BA691343BB617B68BA6962
:1016A0009A607B685B68BB610122FB6902FA03F305
:1016B000DB43BA691340BB613B685B681B0903F0FD
:1016C0000102FB6902FA03F3BA691343BB617B6849
:1016D000BA695A603B685B6803F00303032B17D0B9
:1016E0007B68DB68BB61FB695B00032202FA03F3E2
:1016F000DB43BA691340BB613B689A68FB695B00D6
:1017000002FA03F3BA691343BB617B68BA69DA6012
:101710003B685B6803F00303022B23D1FB69DA0803
:101720007B68083253F82230BB61FB6903F0070382
:101730009B000F2202FA03F3DB43BA691340BB613B
:101740003B681A69FB6903F007039B0002FA03F385
:10175000BA691343BB61FB69DA087B680832B9696F
:1017600043F822107B681B68BB61FB695B000322A6
:1017700002FA03F3DB43BA691340BB613B685B6861
:1017800003F00302FB695B0002FA03F3BA69134337
:10179000BB617B68BA691A603B685B6803F44033DD
:1017A000002B00F09C800023FB60544B5B6C534A81
:1017B00043F480435364514B5B6C03F48043FB6000
:1017C000FB684F4AFB699B08023352F82330BB6128
:1017D000FB6903F003039B000F2202FA03F3DB43D0
:1017E000BA691340BB617B68464A934213D07B6859
:1017F000454A93420DD07B68444A934207D07B68A8
:10180000434A934201D1032306E0072304E0022365
:1018100002E0012300E00023FA6902F003029200D3
:101820009340BA691343BB613549FB699B08023396
:10183000BA6941F82320374B9B68BB613B69DB43A6
:10184000BA691340BB613B685B6803F48013002BEB
:1018500003D0BA693B691343BB612E4ABB699360ED
:101860002C4BDB68BB613B69DB43BA691340BB614E
:101870003B685B6803F40013002B03D0BA693B6933
:101880001343BB61234ABB69D360224B5B68BB61D6
:101890003B69DB43BA691340BB613B685B6803F497
:1018A0000033002B03D0BA693B691343BB61194A6B
:1018B000BB695360174B1B68BB613B69DB43BA696B
:1018C0001340BB613B685B6803F48033002B03D09B
:1018D000BA693B691343BB610E4ABB691360FB697C
:1018E0000133FB61FB690F2B7FF6A8AE00BF00BF81
:1018F0002437BD465DF8047B704700BF00380240C6
:10190000003801400000024000040240000802408C
:10191000000C0240003C014080B483B000AF78600E
:101920000B467B8013467B707B78002B03D07A8834
:101930007B689A6103E07B881A047B689A6100BF28
:101940000C37BD465DF8047B7047000080B586B05B
:1019500000AF78607B68002B01D1012373E27B68C4
:101960001B6803F00103002B75D0884B9B6803F0C4
:101970000C03042B0CD0854B9B6803F00C03082B45
:1019800012D1824B5B6803F48003B3F5800F0BD157
:101990007E4B1B6803F40033002B5BD07B685B68D5
:1019A000002B57D101234EE27B685B68B3F5803F83
:1019B00006D1764B1B68754A43F4803313601DE0F3
:1019C0007B685B68B3F5A02F0CD1704B1B686F4A26
:1019D00043F4802313606D4B1B686C4A43F48033DF
:1019E00013600BE0694B1B68684A23F48033136073
:1019F000664B1B68654A23F4802313607B685B6831
:101A0000002B13D000F048FF386108E000F044FFDD
:101A100002463B69D31A642B01D9032313E25B4BC3
:101A20001B6803F40033002BF0D014E000F034FF07
:101A3000386108E000F030FF02463B69D31A642B9E
:101A400001D90323FFE1514B1B6803F40033002B42
:101A5000F0D100E000BF7B681B6803F00203002B9D
:101A600063D04A4B9B6803F00C03002B0BD0474B11
:101A70009B6803F00C03082B1CD1444B5B6803F4F8
:101A80008003002B16D1414B1B6803F00203002B8F
:101A900005D07B68DB68012B01D00123D3E13B4BF0
:101AA0001B6823F0F8027B681B69DB00374913438E
:101AB0000B603AE07B68DB68002B20D0344B0122BE
:101AC0001A6000F0E9FE386108E000F0E5FE024629
:101AD0003B69D31A022B01D90323B4E12B4B1B68BA
:101AE00003F00203002BF0D0284B1B6823F0F80210
:101AF0007B681B69DB00254913430B6015E0244B11
:101B000000221A6000F0C8FE386108E000F0C4FE50
:101B100002463B69D31A022B01D9032393E11B4BE5
:101B20001B6803F00203002BF0D17B681B6803F0F5
:101B30000803002B36D07B685B69002B16D0154B51
:101B400001221A6000F0A8FE386108E000F0A4FE4F
:101B500002463B69D31A022B01D9032373E10B4BD5
:101B60005B6F03F00203002BF0D01BE0094B002257
:101B70001A6000F091FE38610EE000F08DFE024622
:101B80003B69D31A022B07D903235CE100380240DA
:101B900000004742800E47428A4B5B6F03F002030E
:101BA000002BEAD17B681B6803F00403002B00F0D4
:101BB00097800023FB75834B1B6C03F08053002B35
:101BC0000FD10023BB607F4B1B6C7E4A43F08053D8
:101BD00013647C4B1B6C03F08053BB60BB68012318
:101BE000FB75794B1B6803F48073002B18D1764B7F
:101BF0001B68754A43F48073136000F04DFE386132
:101C000008E000F049FE02463B69D31A022B01D9D5
:101C1000032318E16C4B1B6803F48073002BF0D096
:101C20007B689B68012B06D1664B1B6F654A43F0AE
:101C3000010313671CE07B689B68052B0CD1614B8B
:101C40001B6F604A43F0040313675E4B1B6F5D4AD2
:101C500043F0010313670BE05A4B1B6F594A23F003
:101C600001031367574B1B6F564A23F00403136796
:101C70007B689B68002B15D000F00EFE38610AE0EF
:101C800000F00AFE02463B69D31A41F288329342C1
:101C900001D90323D7E04B4B1B6F03F00203002B4A
:101CA000EED014E000F0F8FD38610AE000F0F4FD39
:101CB00002463B69D31A41F28832934201D9032389
:101CC000C1E0404B1B6F03F00203002BEED1FB7D04
:101CD000012B05D13B4B1B6C3A4A23F08053136414
:101CE0007B689B69002B00F0AD80364B9B6803F04E
:101CF0000C03082B60D07B689B69022B45D1334BCA
:101D000000221A6000F0C8FD386108E000F0C4FD50
:101D100002463B69D31A022B01D9032393E0294BD6
:101D20001B6803F00073002BF0D17B68DA697B68D5
:101D30001B6A1A437B685B6A9B011A437B689B6A38
:101D40005B08013B1B041A437B68DB6A1B061A43D2
:101D50007B681B6B1B071B4913434B601B4B01220A
:101D60001A6000F099FD386108E000F095FD024628
:101D70003B69D31A022B01D9032364E0114B1B6882
:101D800003F00073002BF0D05CE0104B00221A60CF
:101D900000F082FD386108E000F07EFD02463B69FC
:101DA000D31A022B01D903234DE0064B1B6803F025
:101DB0000073002BF0D145E07B689B69012B07D1B4
:101DC000012340E0003802400070004060004742BC
:101DD0001F4B5B68FB607B689B69012B30D0FB6805
:101DE00003F480027B68DB699A4229D1FB6803F027
:101DF0003F027B681B6A9A4222D1FA6847F6C07399
:101E000013407A68526A9201934219D1FB6803F435
:101E100040327B689B6A5B08013B1B049A420FD1EE
:101E2000FB6803F070627B68DB6A1B069A4207D18D
:101E3000FB6803F0E0427B681B6B1B079A4201D0F2
:101E4000012300E0002318461837BD4680BD00BFBF
:101E50000038024080B584B000AF786039607B689C
:101E6000002B01D10123CCE0684B1B6803F0070372
:101E70003A689A420CD9654B3A68D2B21A70634BF1
:101E80001B6803F007033A689A4201D00123B8E0C7
:101E90007B681B6803F00203002B20D07B681B6863
:101EA00003F00403002B05D0594B9B68584A43F4B8
:101EB000E05393607B681B6803F00803002B05D098
:101EC000534B9B68524A43F460439360504B9B686A
:101ED00023F0F0027B689B684D4913438B607B685D
:101EE0001B6803F00103002B44D07B685B68012B67
:101EF00007D1474B1B6803F40033002B19D1012392
:101F00007FE07B685B68022B03D07B685B68032BF8
:101F100007D13F4B1B6803F00073002B09D101234D
:101F20006FE03B4B1B6803F00203002B01D1012340
:101F300067E0374B9B6823F003027B685B6834499A
:101F400013438B6000F0A8FCF8600AE000F0A4FCEA
:101F50000246FB68D31A41F28832934201D9032327
:101F60004FE02B4B9B6803F00C027B685B689B0087
:101F70009A42EBD1254B1B6803F007033A689A425B
:101F80000CD2224B3A68D2B21A70204B1B6803F075
:101F900007033A689A4201D0012332E07B681B684C
:101FA00003F00403002B08D0194B9B6823F4E05284
:101FB0007B68DB68164913438B607B681B6803F002
:101FC0000803002B09D0124B9B6823F460427B6806
:101FD0001B69DB000E4913438B6000F021F80246B9
:101FE0000B4B9B681B0903F00F030A49CB5C22FAD9
:101FF00003F3094A1360094B1B681846FEF71CFEE1
:10200000002318461037BD4680BD00BF003C02408B
:10201000003802404C6D00083404002038040020D1
:102020002DE9B04F94B000AF00237B640023FB6424
:1020300000233B640023BB64794B9B6803F00C03D3
:10204000082B0DD0082B00F2E180002B02D0042BCE
:1020500003D0DBE0734BBB64DBE0734BBB64D8E0C5
:102060006F4B5B6803F03F037B646D4B5B6803F46D
:102070008003002B63D06A4B5B689B090022BB6323
:10208000FA63BB6BC3F308033B6300237B63D7E9AD
:102090000C4522462B464FF000004FF0000159013D
:1020A00041EAD261500102460B462146511A39617C
:1020B000294663EB01037B614FF000024FF0000300
:1020C000D7E904AB59468B01514643EA9163514627
:1020D0008A015146B2EB0108594663EB01094FF002
:1020E00000024FF000034FEAC90343EA58734FEA76
:1020F000C80290469946234618EB0303BB602B4663
:1021000049EB0303FB604FF000024FF00003D7E9F7
:10211000024529464B02214643EAD15321464A0251
:10212000104619467B6C0022BB62FA62D7E90A238B
:10213000FEF7B8F802460B461346FB6458E0384BEE
:102140005B689B09002218461146C0F308033B62F6
:1021500000237B62D7E9088942464B464FF00000D6
:102160004FF00001590141EAD261500102460B468D
:102170004146B2EB010A494663EB010B4FF0000206
:102180004FF000034FEA8B1343EA9A634FEA8A1237
:10219000B2EB0A0463EB0B054FF000024FF00003B3
:1021A000EB0043EA5473E20014461D464346E3182D
:1021B0003B604B4645EB03037B604FF000024FF062
:1021C0000003D7E9004529468B02214643EA915393
:1021D00021468A02104619467B6C0022BB61FA61D7
:1021E000D7E90623FEF75EF802460B461346FB646A
:1021F0000B4B5B681B0C03F0030301335B003B6478
:10220000FA6C3B6CB2FBF3F3BB6402E0054BBB64BE
:1022100000BFBB6C18465037BD46BDE8B08F00BF4D
:10222000003802400024F40000127A0080B400AFAD
:10223000034B1B681846BD465DF8047B704700BF22
:102240003404002080B500AFFFF7F0FF0246054BD5
:102250009B689B0A03F007030349CB5C22FA03F354
:10226000184680BD003802405C6D000880B483B021
:1022700000AF786039607B680F221A60124B9B6850
:1022800003F003027B685A600F4B9B6803F0F00277
:102290007B689A600C4B9B6803F4E0527B68DA60C1
:1022A000094B9B68DB0803F4E0527B681A61074B1B
:1022B0001B6803F007023B681A6000BF0C37BD467D
:1022C0005DF8047B704700BF00380240003C0240CC
:1022D00080B483B000AF786000BF0C37BD465DF8B6
:1022E000047B704780B483B000AF786000BF0C37C8
:1022F000BD465DF8047B704780B582B000AF786062
:102300007B68002B01D1012341E07B6893F83D30CD
:10231000DBB2002B06D17B68002283F83C20786872
:1023200000F039F87B68022283F83D207B681A6848
:102330007B6804331946104600F0D8F97B68012207
:1023400083F846207B68012283F83E207B680122C7
:1023500083F83F207B68012283F840207B680122BC
:1023600083F841207B68012283F842207B680122A8
:1023700083F843207B68012283F844207B68012294
:1023800083F845207B68012283F83D20002318460E
:102390000837BD4680BD80B483B000AF786000BF11
:1023A0000C37BD465DF8047B7047000080B485B0F3
:1023B00000AF78607B6893F83D30DBB2012B01D031
:1023C00001234EE07B68022283F83D207B681B6876
:1023D000DA687B681B6842F00102DA607B681B6880
:1023E000234A934222D07B681B68B3F1804F1DD0F3
:1023F0007B681B681F4A934218D07B681B681E4A83
:10240000934213D07B681B681C4A93420ED07B68B2
:102410001B681B4A934209D07B681B68194A934288
:1024200004D07B681B68184A934211D17B681B68F3
:102430009B6803F00703FB60FB68062B10D07B68EA
:102440001B681A687B681B6842F001021A6007E08B
:102450007B681B681A687B681B6842F001021A607F
:10246000002318461437BD465DF8047B704700BF53
:10247000000001400004004000080040000C004043
:1024800000040140004001400018004080B582B0C7
:1024900000AF78607B681B681B6903F00203022BA6
:1024A00022D17B681B68DB6803F00203022B1BD17F
:1024B0007B681B686FF002021A617B6801221A7741
:1024C0007B681B689B6903F00303002B03D07868CB
:1024D00000F0EEF805E0786800F0E0F8786800F0C9
:1024E000F1F87B6800221A777B681B681B6903F090
:1024F0000403042B22D17B681B68DB6803F0040310
:10250000042B1BD17B681B686FF004021A617B6887
:1025100002221A777B681B689B6903F44073002BC7
:1025200003D0786800F0C4F805E0786800F0B6F8E9
:10253000786800F0C7F87B6800221A777B681B6810
:102540001B6903F00803082B22D17B681B68DB683A
:1025500003F00803082B1BD17B681B686FF008028F
:102560001A617B6804221A777B681B68DB6903F0B9
:102570000303002B03D0786800F09AF805E0786830
:1025800000F08CF8786800F09DF87B6800221A77DC
:102590007B681B681B6903F01003102B22D17B683A
:1025A0001B68DB6803F01003102B1BD17B681B68D2
:1025B0006FF010021A617B6808221A777B681B682B
:1025C000DB6903F44073002B03D0786800F070F8E7
:1025D00005E0786800F062F8786800F073F87B68CE
:1025E00000221A777B681B681B6903F00103012B2B
:1025F0000ED17B681B68DB6803F00103012B07D158
:102600007B681B686FF001021A617868FEF756FA62
:102610007B681B681B6903F08003802B0ED17B68ED
:102620001B68DB6803F08003802B07D17B681B6885
:102630006FF080021A617868FFF754FE7B681B68B0
:102640001B6903F04003402B0ED17B681B68DB68DD
:1026500003F04003402B07D17B681B686FF04002FA
:102660001A61786800F038F87B681B681B6903F012
:102670002003202B0ED17B681B68DB6803F020034E
:10268000202B07D17B681B686FF020021A617868E5
:10269000FFF71EFE00BF0837BD4680BD80B483B083
:1026A00000AF786000BF0C37BD465DF8047B704713
:1026B00080B483B000AF786000BF0C37BD465DF8D2
:1026C000047B704780B483B000AF786000BF0C37E4
:1026D000BD465DF8047B704780B483B000AF78607E
:1026E00000BF0C37BD465DF8047B704780B485B0F1
:1026F00000AF786039607B681B68FB607B68404A8C
:10270000934213D07B68B3F1804F0FD07B683D4A72
:1027100093420BD07B683C4A934207D07B683B4A8C
:10272000934203D07B683A4A934208D1FB6823F076
:102730007003FB603B685B68FA681343FB607B686F
:102740002F4A93422BD07B68B3F1804F27D07B6810
:102750002C4A934223D07B682B4A93421FD07B683C
:102760002A4A93421BD07B68294A934217D07B6840
:10277000284A934213D07B68274A93420FD07B6844
:10278000264A93420BD07B68254A934207D07B6848
:10279000244A934203D07B68234A934208D1FB68C2
:1027A00023F44073FB603B68DB68FA681343FB600B
:1027B000FB6823F080023B685B691343FB607B6826
:1027C000FA681A603B689A687B68DA623B681A6844
:1027D0007B689A627B680A4A934203D07B680C4A02
:1027E000934203D13B681A697B681A637B680122B4
:1027F0005A6100BF1437BD465DF8047B704700BFC7
:10280000000001400004004000080040000C0040AF
:1028100000040140004001400044014000480140E4
:1028200000180040001C00400020004080B500AFB0
:102830000E4B1B680D4A43F4007313600B4B1B686F
:102840000A4A43F480631360084B1B68074A43F449
:10285000807313600320FEF7AEFE0F20FEF7ECF945
:10286000FEF744F90023184680BD00BF003C02403B
:1028700080B400AF064B1B781A46064B1B68134406
:10288000044A136000BFBD465DF8047B704700BF7B
:102890003C040020902A002080B400AF034B1B684A
:1028A0001846BD465DF8047B704700BF902A0020A3
:1028B00080B483B000AF03463960FB7197F90730ED
:1028C000002B0ADB3B68DAB20C4997F9073012019A
:1028D000D2B20B4483F800230AE03B68DAB208491D
:1028E000FB7903F00F03043B1201D2B20B441A76BA
:1028F00000BF0C37BD465DF8047B704700E100E087
:1029000000ED00E080B500AF054B1B6802F074F8E5
:102910000346012B01D000F0AFFB00BF80BD00BF1C
:1029200010E000E080B500AF00216FF00400FFF779
:10293000BFFF00BF80BD000080B483B000AFEFF3E5
:1029400005833B603B68002B03D06FF005037B6081
:102950000CE00A4B1B68002B05D1084B01221A60C2
:1029600000237B6002E04FF0FF337B607B681846FA
:102970000C37BD465DF8047B704700BF942A0020E9
:1029800080B582B000AFEFF305833B603B68002B5E
:1029900003D06FF005037B6010E00B4B1B68012B2D
:1029A00009D1FFF7BFFF084B02221A6001F094FB28
:1029B00000237B6002E04FF0FF337B607B681846AA
:1029C0000837BD4680BD00BF942A002080B58EB078
:1029D00004AFF860B9607A6000233B61EFF30583D0
:1029E0007B617B69002B7FD1FB68002B7CD080232F
:1029F0003B621823FB6100237B624FF0FF33BB6116
:102A00007B68002B46D07B681B68002B02D07B685C
:102A10001B687B627B689B69002B02D07B689B698B
:102A2000FB61FB69002B08D0FB69382B05D87B685C
:102A30005B6803F00103002B01D0002355E07B68A5
:102A40005B69002B03D07B685B699B083B627B68FA
:102A50009B68002B0FD07B68DB68B3F5916F0AD3BE
:102A60007B681B69002B06D07B685B69002B02D05A
:102A70000123BB6110E07B689B68002B0CD17B6855
:102A8000DB68002B08D17B681B69002B04D1002375
:102A9000BB6101E00023BB61BB69012B10D17B68E6
:102AA0001B697A68926802920193FB690093BB6884
:102AB0003A6A796AF86801F0D5F803463B6113E099
:102AC000BB69002B10D13B6A9AB207F11003019346
:102AD000FB690093BB68796AF86801F022F9034644
:102AE000012B01D000233B613B6918462837BD46C6
:102AF00080BD80B584B000AF7860EFF30583BB6024
:102B0000BB68002B03D06FF00503FB6007E00023D8
:102B1000FB607B68002B02D0786801F0A5FAFB68A7
:102B200018461037BD4680BD80B485B000AFF86050
:102B3000B9607A60FB68074A1A60BB68064A1A6087
:102B40007B6880221A6000BF1437BD465DF8047BA5
:102B5000704700BF982A0020202F002080B485B045
:102B600000AFF860B9607A60FB68074A1A60BB681A
:102B7000064A1A607B684FF480721A6000BF1437EF
:102B8000BD465DF8047B704720310020A835002049
:102B900080B483B000AF78607B6803F108027B6883
:102BA0005A607B684FF0FF329A607B6803F108023D
:102BB0007B68DA607B6803F108027B681A617B68D6
:102BC00000221A6000BF0C37BD465DF8047B7047D9
:102BD00080B483B000AF78607B6800221A6100BFC8
:102BE0000C37BD465DF8047B704780B485B000AFFC
:102BF000786039607B685B68FB603B68FA685A60A4
:102C0000FB689A683B689A60FB689B683A685A6000
:102C1000FB683A689A603B687A681A617B681B684F
:102C20005A1C7B681A6000BF1437BD465DF8047BF0
:102C3000704780B485B000AF786039603B681B682E
:102C4000BB60BB68B3F1FF3F03D17B681B69FB60CE
:102C50000CE07B680833FB6002E0FB685B68FB60AC
:102C6000FB685B681B68BA689A42F6D2FB685A68D0
:102C70003B685A603B685B683A689A603B68FA68F0
:102C80009A60FB683A685A603B687A681A617B68A8
:102C90001B685A1C7B681A6000BF1437BD465DF87C
:102CA000047B704780B485B000AF78607B681B6997
:102CB000FB607B685B687A6892689A607B689B6857
:102CC0007A6852685A60FB685B687A689A4203D1F6
:102CD0007B689A68FB685A607B6800221A61FB680F
:102CE0001B685A1EFB681A60FB681B68184614377D
:102CF000BD465DF8047B704780B485B000AFF860D6
:102D0000B9607A60FB68043BFB60FB684FF080723F
:102D10001A60FB68043BFB60BB6823F00102FB68A0
:102D20001A60FB68043BFB600C4AFB681A60FB6896
:102D3000143BFB607A68FB681A60FB68043BFB602D
:102D4000FB686FF002021A60FB68203BFB60FB68C7
:102D500018461437BD465DF8047B7047612D0008A6
:102D600080B485B000AF00237B60124B1B68B3F1C9
:102D7000FF3F0AD04FF0500383F31188BFF36F8FEA
:102D8000BFF34F8FFB6000BFFEE74FF0500383F3AC
:102D90001188BFF36F8FBFF34F8FBB6000BF00BFC1
:102DA0007B68002BFCD000BF00BF1437BD465DF828
:102DB000047B704740040020000000000000000079
:102DC000074B19680868B0E8F04F80F30988BFF333
:102DD0006F8F4FF0000080F311887047AFF30080D1
:102DE000F039002000BF00BF08480068006880F389
:102DF00008884FF0000080F3148862B661B6BFF314
:102E00004F8FBFF36F8F00DF00BF00BF08ED00E002
:102E100080B586B000AF464B1B68464A93420AD144
:102E20004FF0500383F31188BFF36F8FBFF34F8FC1
:102E30003B6100BFFEE73E4B1B683F4A93420AD10D
:102E40004FF0500383F31188BFF36F8FBFF34F8FA1
:102E5000FB6000BFFEE7394B7B617B691B78DBB20F
:102E60007B607B69FF221A707B691B78DBB2FB7089
:102E7000FB78DBB203F05003DAB2314B1A70314BFE
:102E800007221A6009E02F4B1B68013B2D4A136093
:102E9000FB78DBB25B00DBB2FB70FB78DBB203F0EC
:102EA0008003802BEFD0274B1B68C3F10703042B53
:102EB0000AD04FF0500383F31188BFF36F8FBFF335
:102EC0004F8FBB6000BFFEE71E4B1B681B021D4AF5
:102ED00013601C4B1B6803F4E0631A4A13607B68A1
:102EE000DAB27B691A70184B1B68174A43F47003F7
:102EF0001360154B1B68144A43F07043136000F0D5
:102F0000DDF8124B00221A6000F0FCF8104B1B6831
:102F10000F4A43F040431360FFF766FF01F0DCFA0D
:102F2000FFF71EFF002318461837BD4680BD00BFBF
:102F300000ED00E071C20F4170C20F4100E400E0FB
:102F4000A8390020AC39002020ED00E0400400202A
:102F500034EF00E080B483B000AF4FF0500383F350
:102F60001188BFF36F8FBFF34F8F7B6000BF0F4B94
:102F70001B6801330D4A13600C4B1B68012B0FD1EA
:102F80000B4B1B68DBB2002B0AD04FF0500383F3CE
:102F90001188BFF36F8FBFF34F8F3B6000BFFEE719
:102FA00000BF0C37BD465DF8047B7047400400202D
:102FB00004ED00E080B483B000AF124B1B68002B1F
:102FC0000AD14FF0500383F31188BFF36F8FBFF323
:102FD0004F8F7B6000BFFEE70A4B1B68013B094A2D
:102FE0001360084B1B68002B05D100233B603B6836
:102FF00083F3118800BF00BF0C37BD465DF8047B2A
:10300000704700BF400400200000000000000000E6
:10301000EFF30980BFF36F8F154B1A681EF0100F86
:1030200008BF20ED108A20E9F04F10602DE909005B
:103030004FF0500080F31188BFF34F8FBFF36F8FB5
:1030400001F04AFA4FF0000080F3118809BC1968BA
:103050000868B0E8F04F1EF0100F08BFB0EC108AFF
:1030600080F30988BFF36F8F704700BFAFF3008014
:10307000F039002000BF00BF80B582B000AF4FF034
:10308000500383F31188BFF36F8FBFF34F8F7B60C3
:1030900000BF01F063F90346002B03D0064B4FF04D
:1030A00080521A6000233B603B6883F3118800BFA5
:1030B00000BF0837BD4680BD04ED00E080B400AF1E
:1030C0000B4B00221A600B4B00221A600A4B1B6844
:1030D0000A4AA2FB03239B09094A013B1360044BE4
:1030E00007221A6000BFBD465DF8047B704700BF31
:1030F00010E000E018E000E034040020D34D62103E
:1031000014E000E0DFF80C00016841F47001016098
:10311000704700BF88ED00E080B485B000AFEFF3EA
:103120000583FB60FB680F2B14D9174AFB68134417
:103130001B78FB72154B1B78FA7A9A420AD24FF031
:10314000500383F31188BFF36F8FBFF34F8F7B6002
:1031500000BFFEE70E4B1B6803F4E0620D4B1B68DB
:103160009A420AD94FF0500383F31188BFF36F8F4F
:10317000BFF34F8F3B6000BFFEE700BF1437BD4673
:103180005DF8047B704700BFF0E300E0A839002041
:103190000CED00E0AC39002080B584B000AF786061
:1031A00039607B68FB60FB68002B0AD14FF050034D
:1031B00083F31188BFF36F8FBFF34F8FBB6000BFE6
:1031C000FEE7FFF7C7FEFB681A68FB68DB6BF96870
:1031D000096C01FB03F31A44FB689A60FB68002248
:1031E0009A63FB681A68FB685A60FB681A68FB6898
:1031F000DB6B013BF968096C01FB03F31A44FB68C4
:10320000DA60FB68FF2283F84420FB68FF2283F822
:1032100045203B68002B14D1FB681B69002B1AD09A
:10322000FB681033184601F021FA0346002B12D038
:103230000C4B4FF080521A60BFF34F8FBFF36F8F6C
:1032400009E0FB6810331846FFF7A2FCFB68243343
:103250001846FFF79DFCFFF7ADFE01231846103717
:10326000BD4680BD04ED00E080B58EB002AFF860D1
:10327000B9607A603B60FB68002B0AD14FF05003C5
:1032800083F31188BFF36F8FBFF34F8FBB6200BF13
:10329000FEE73B68002B0AD14FF0500383F31188FF
:1032A000BFF36F8FBFF34F8F7B6200BFFEE77B687A
:1032B000002B02D0BB68002B01D0012300E00023CB
:1032C000002B0AD14FF0500383F31188BFF36F8FA7
:1032D000BFF34F8F3B6200BFFEE77B68002B02D13C
:1032E000BB68002B01D1012300E00023002B0AD191
:1032F0004FF0500383F31188BFF36F8FBFF34F8FED
:10330000FB6100BFFEE750237B617B69502B0AD035
:103310004FF0500383F31188BFF36F8FBFF34F8FCC
:10332000BB6100BFFEE77B693B68FB62FB6A002B69
:103330000DD0FB6A012283F8462097F83820FB6AFB
:10334000009313467A68B968F86800F005F8FB6ADC
:1033500018463037BD4680BD80B584B000AFF860F8
:10336000B9607A60FB70BB68002B03D1BB69BA6996
:103370001A6002E0BB697A681A60BB69FA68DA63AE
:10338000BB69BA681A640121B869FFF705FFBB6918
:10339000FA7883F84C20FB78BA68F968732002F059
:1033A0008BFB00BF1037BD4680BD000080B590B0DC
:1033B00002AFF860B9607A603B6000237B63FB6812
:1033C0003B633B6B002B0AD14FF0500383F3118812
:1033D000BFF36F8FBFF34F8FBB6200BFFEE7BB68C9
:1033E000002B03D13B6B1B6C002B01D1012300E0B0
:1033F0000023002B0AD14FF0500383F31188BFF351
:103400006F8FBFF34F8F7B6200BFFEE73B68022BDD
:1034100003D13B6BDB6B012B01D1012300E00023C7
:10342000002B0AD14FF0500383F31188BFF36F8F45
:10343000BFF34F8F3B6200BFFEE701F0DDFA0346AA
:10344000002B02D17B68002B01D1012300E0002377
:10345000002B0AD14FF0500383F31188BFF36F8F15
:10346000BFF34F8FFB6100BFFEE7FFF773FD3B6BC0
:103470009A6B3B6BDB6B9A4202D33B68022B36D1D3
:103480003B6B184602F0A6FFBA6879683B68009368
:103490000B4601465A2002F085FB3A68B968386B42
:1034A00000F06AFAF8623B6B5B6A002B10D03B6B52
:1034B0002433184601F0DAF80346002B13D04D4BA5
:1034C0004FF080521A60BFF34F8FBFF36F8F0AE047
:1034D000FB6A002B07D0474B4FF080521A60BFF3B6
:1034E0004F8FBFF36F8FFFF765FD01237DE07B6892
:1034F000002B10D1FFF75EFD3B6B184602F06AFF10
:10350000BA6879683B6800930B4601465A2002F07E
:1035100049FB002369E07B6B002B06D107F1140304
:10352000184601F00BF901237B63FFF743FD00F020
:1035300055FEFFF70FFD3B6B93F844305BB2B3F1E0
:10354000FF3F03D13B6B002283F844203B6B93F891
:1035500045305BB2B3F1FF3F03D13B6B002283F8F0
:103560004520FFF727FD3A1D07F1140311461846C1
:1035700001F0FAF80346002B24D1386B00F0F4FA7E
:103580000346002B18D03B6B10337A68114618465F
:1035900001F01AF8386B00F07FFA00F02DFE0346B8
:1035A000002B7FF462AF134B4FF080521A60BFF3D1
:1035B0004F8FBFF36F8F58E7386B00F06DFA00F054
:1035C0001BFE52E7386B00F067FA00F015FE3B6B0C
:1035D000184602F0FFFEBA6879683B6800930B4614
:1035E00001465A2002F0DEFA002318463837BD465D
:1035F00080BD00BF04ED00E080B590B000AFF86082
:10360000B9607A603B60FB68BB63BB6B002B0AD17F
:103610004FF0500383F31188BFF36F8FBFF34F8FC9
:10362000BB6200BFFEE7BB68002B03D1BB6B1B6C0A
:10363000002B01D1012300E00023002B0AD14FF021
:10364000500383F31188BFF36F8FBFF34F8F7B62FB
:1036500000BFFEE73B68022B03D1BB6BDB6B012B8A
:1036600001D1012300E00023002B0AD14FF05003C9
:1036700083F31188BFF36F8FBFF34F8F3B6200BF9F
:10368000FEE7FFF749FDEFF311824FF0500383F39C
:103690001188BFF36F8FBFF34F8FFA61BB61FB6976
:1036A0007B63BB6B9A6BBB6BDB6B9A4202D33B6851
:1036B000022B39D1BB6B93F8453087F83330BB6BA5
:1036C0009B6BFB62BB6B184602F084FE01467B6875
:1036D0001A46602002F096F93A68B968B86B00F0B3
:1036E0004BF997F93330B3F1FF3F12D1BB6B5B6AF3
:1036F000002B16D0BB6B2433184600F0B7FF0346EF
:10370000002B0ED07B68002B0BD07B6801221A6047
:1037100007E097F833300133DBB25AB2BB6B83F862
:1037200045200123FB630BE0BB6B184602F052FE01
:1037300001467B681A46602002F064F90023FB63AF
:103740007B6B7B617B6983F3118800BFFB6B184641
:103750004037BD4680BD000090B58FB002AFF86025
:10376000B9607A600023FB62FB68BB62BB6A002B16
:103770000AD14FF0500383F31188BFF36F8FBFF36B
:103780004F8F3B6200BFFEE7BB68002B03D1BB6AD3
:103790001B6C002B01D1012300E00023002B0AD178
:1037A0004FF0500383F31188BFF36F8FBFF34F8F38
:1037B000FB6100BFFEE701F01FF90346002B02D1B9
:1037C0007B68002B01D1012300E00023002B0AD1EC
:1037D0004FF0500383F31188BFF36F8FBFF34F8F08
:1037E000BB6100BFFEE7FFF7B5FBBB6A9B6B7B626B
:1037F0007B6A002B2FD0B968B86A00F027F9BB6A42
:10380000184602F0E7FD0446002002F0E3FD024600
:103810007B680121009121465C2002F0C3F97B6A9C
:103820005A1EBB6A9A63BB6A1B69002B0FD0BB6A26
:103830001033184600F01AFF0346002B07D04D4BFB
:103840004FF080521A60BFF34F8FBFF36F8FFFF7B7
:10385000B1FB01238AE07B68002B13D1FFF7AAFBA1
:10386000BB6A184602F0B6FD0446002002F0B2FD25
:1038700002467B680121009121465C2002F092F90A
:10388000002373E0FB6A002B06D107F110031846F2
:1038900000F054FF0123FB62FFF78CFB00F09EFC5D
:1038A000FFF758FBBB6A93F844305BB2B3F1FF3FBC
:1038B00003D1BB6A002283F84420BB6A93F84530E9
:1038C0005BB2B3F1FF3F03D1BB6A002283F845200E
:1038D000FFF770FB3A1D07F110031146184600F080
:1038E00043FF0346002B24D1B86A00F027F90346B2
:1038F000002B18D0BB6A24337A681146184600F0B2
:1039000063FEB86A00F0C8F800F076FC0346002BAE
:103910007FF469AF174B4FF080521A60BFF34F8F9F
:10392000BFF36F8F5FE7B86A00F0B6F800F064FC91
:1039300059E7B86A00F0B0F800F05EFCB86A00F031
:10394000FDF80346002B3FF44EAFBB6A184602F069
:1039500041FD0446002002F03DFD02467B68012146
:10396000009121465C2002F01DF9002318463437EF
:10397000BD4690BD04ED00E080B586B000AFF860B4
:10398000B9607A6000237B61FB689B6B3B61FB68DD
:103990001B6C002B0DD1FB681B68002B4DD1FB6805
:1039A0009B68184601F046F87861FB6800229A602F
:1039B00043E07B68002B19D1FB685868FB681B6CDF
:1039C0001A46B96802F0D4FFFB685A68FB681B6CA2
:1039D0001A44FB685A60FB685A68FB689B689A4205
:1039E0002BD3FB681A68FB685A6026E0FB68D8682E
:1039F000FB681B6C1A46B96802F0BAFFFB68DA680C
:103A0000FB681B6C5B421A44FB68DA60FB68DA688F
:103A1000FB681B689A4207D2FB689A68FB681B6CBC
:103A20005B421A44FB68DA607B68022B05D13B6974
:103A3000002B02D03B69013B3B613B695A1CFB6890
:103A40009A637B6918461837BD4680BD80B582B041
:103A500000AF786039607B681B6C002B18D07B68E6
:103A6000DA687B681B6C1A447B68DA607B68DA680A
:103A70007B689B689A4203D37B681A687B68DA602C
:103A80007B68D9687B681B6C1A46386802F070FF47
:103A900000BF0837BD4680BD80B584B000AF7860F8
:103AA000FFF758FA7B6893F84530FB7311E07B68A9
:103AB0005B6A002B12D07B682433184600F0D6FDD9
:103AC0000346002B01D000F0B1FEFB7B013BDBB2D3
:103AD000FB7397F90F30002BE9DC00E000BF7B6837
:103AE000FF2283F84520FFF765FAFFF733FA7B687A
:103AF00093F84430BB7311E07B681B69002B12D034
:103B00007B681033184600F0B1FD0346002B01D04E
:103B100000F08CFEBB7B013BDBB2BB7397F90E3030
:103B2000002BE9DC00E000BF7B68FF2283F8442023
:103B3000FFF740FA00BF1037BD4680BD80B584B0A6
:103B400000AF7860FFF706FA7B689B6B002B02D111
:103B50000123FB6001E00023FB60FFF72BFAFB6809
:103B600018461037BD4680BD80B584B000AF786080
:103B7000FFF7F0F97B689A6B7B68DB6B9A4202D1A6
:103B80000123FB6001E00023FB60FFF713FAFB68F1
:103B900018461037BD4680BD80B584B000AF786050
:103BA00039600023FB601EE0134AFB6852F8333093
:103BB000002B15D11049FB683A6841F833200E4AB2
:103BC000FB68DB0013447A685A607B68184602F091
:103BD00001FC01463B681A46712001F013FF06E024
:103BE000FB680133FB60FB68072BDDD900BF00BF1A
:103BF0001037BD4680BD00BFB039002080B586B00B
:103C000000AFF860B9607A60FB687B61FFF7A2F9EA
:103C10007B6993F844305BB2B3F1FF3F03D17B691A
:103C2000002283F844207B6993F845305BB2B3F1FE
:103C3000FF3F03D17B69002283F84520FFF7BAF9E3
:103C40007B699B6B002B06D17B6924337A68B9684A
:103C5000184600F0DDFC7869FFF71EFF00BF18373B
:103C6000BD4680BD80B58EB004AFF860B9607A60A3
:103C70003B607B6B002B0AD14FF0500383F311881C
:103C8000BFF36F8FBFF34F8F3B6200BFFEE7BB6B8D
:103C9000002B0AD14FF0500383F31188BFF36F8FCD
:103CA000BFF34F8FFB6100BFFEE74FF491633B61B1
:103CB0003B69B3F5916F0AD04FF0500383F311883D
:103CC000BFF36F8FBFF34F8FBB6100BFFEE73B6950
:103CD000BB6B002B1ED07B6B002B1BD0BB6B7B62A6
:103CE0007B6A7A6B1A637B6A022283F8852400233D
:103CF00003937B6A029307F1140301933B6B0093D8
:103D00003B687A68B968F86800F051F8786A00F0A2
:103D10001DF901E000237B617B6918462837BD4609
:103D200080BD80B58CB004AFF860B9603B601346CD
:103D3000FB80FB889B00184602F0E1FD78617B69FF
:103D4000002B0FD04FF4916002F0D9FDF861FB69B0
:103D5000002B03D0FB697A691A6305E0786902F0E9
:103D6000DCFD01E00023FB61FB69002B17D0FB6940
:103D7000002283F88524FA8800230393FB690293C9
:103D8000FB6A0193BB6A00933B68B968F86800F06E
:103D90000EF8F86900F0DAF80123BB6102E04FF099
:103DA000FF33BB61BB6918462037BD4680BD80B577
:103DB00088B000AFF860B9607A603B603B6B186B0D
:103DC0007B689B001A46A521FCF712FC3B6B1A6B23
:103DD0007B6803F18043013B9B001344BB61BB69DB
:103DE00023F00703BB61BB6903F00703002B0AD074
:103DF0004FF0500383F31188BFF36F8FBFF34F8FE2
:103E00007B6100BFFEE7BB68002B1FD00023FB6176
:103E100012E0BA68FB69134419783A6BFB691344E2
:103E200034330A461A70BA68FB6913441B78002BB6
:103E300006D0FB690133FB61FB690F2BE9D900E078
:103E400000BF3B6B002283F8432003E03B6B002262
:103E500083F83420BB6A372B01D93723BB623B6B15
:103E6000BA6ADA623B6BBA6ADA643B6B00221A65A3
:103E70003B6B04331846FEF7ABFE3B6B183318461A
:103E8000FEF7A6FE3B6B3A6B1A61BB6AC3F13802C0
:103E90003B6B9A613B6B3A6B5A623B6B0022C3F8F7
:103EA00080243B6B002283F884243B6B58334FF40F
:103EB000856200211846FCF79BFB3B6B03F55172B2
:103EC0003B6BDA653B6B03F56B723B6B1A663B6BC6
:103ED00003F214423B6B5A66396B4FF001024FF00C
:103EE0000003C1E940233B6B43F20E32A3F80821E3
:103EF0003B6B4AF6CD32A3F80A213B6B41F23422E8
:103F0000A3F80C213B6B4EF26D62A3F80E213B6BC4
:103F10004DF6EC62A3F810213B6B0522A3F81221A9
:103F20003B6B0B22A3F814213A68F968B869FEF7D5
:103F3000E3FE02463B6B1A60FB6A002B02D0FB6A71
:103F40003A6B1A6000BF2037BD4680BDB0B584B063
:103F500002AF7860FEF7FEFF3C4B1B6801333B4A23
:103F600013603B4B1B68002B09D1394A7B681360F7
:103F7000364B1B68012B10D100F07CFC0DE0354B5B
:103F80001B68002B09D1324B1B68DA6A7B68DB6A3D
:103F90009A4202D82E4A7B6813602F4B1B6801336C
:103FA0002D4A13602C4B1A687B685A647B68002B7F
:103FB00016D07B68184602F047F978687B6803F1F1
:103FC00034017B68DA6A7B681B6B1D467B681B6863
:103FD0001C467B681B6BE31A00932B4602F04CFBDC
:103FE0007B68184602F0B4F97B68DA6A1B4B1B68E1
:103FF0009A4203D97B68DB6A184A13607B68DA6AE5
:1040000013469B0013449B00154A1A447B680433F3
:1040100019461046FEF7E9FDFEF7CCFF0D4B1B6875
:10402000002B0ED00A4B1B68DA6A7B68DB6A9A4267
:1040300007D20C4B4FF080521A60BFF34F8FBFF383
:104040006F8F00BF0837BD46B0BD00BFC43E002023
:10405000F0390020D03E0020E03E0020CC3E002081
:10406000F439002004ED00E080B584B000AF786042
:104070000023FB607B68002B1BD0154B1B68002BBB
:104080000AD04FF0500383F31188BFF36F8FBFF353
:104090004F8FBB6000BFFEE700F0A0F879682320D7
:1040A00001F074FC0021786800F03AFD00F0A4F8FB
:1040B000F860FB68002B07D1064B4FF080521A6066
:1040C000BFF34F8FBFF36F8F00BF1037BD4680BD6A
:1040D000EC3E002004ED00E080B58AB004AF002380
:1040E000BB6000237B603A46391D07F10803184680
:1040F000FEF71AFD39687B68BA68029201930023C3
:10410000009300230A462D492D48FFF7ABFD0346D7
:104110002C4A13602B4B1B68002B02D001237B61C0
:1041200001E000237B617B69012B02D100F04CFD93
:1041300078617B69012B2ED14FF0500383F31188F6
:10414000BFF36F8FBFF34F8F3B6100BF1E4B1B68E8
:1041500058331E4A13601E4B4FF0FF321A601D4B3E
:1041600001221A601C4B00221A60174B1B68343363
:1041700005221249184602F0EBFB0346002B05D03E
:10418000114B1B68184602F0A1F801E002F040F85C
:10419000FEF73EFE0EE07B69B3F1FF3F0AD14FF020
:1041A000500383F31188BFF36F8FBFF34F8FFB6012
:1041B00000BFFEE700BF1837BD4680BD606C000839
:1041C00045480008E83E0020F039002000000020AB
:1041D000E43E0020D03E0020C83E002080B400AF66
:1041E000044B1B680133034A136000BFBD465DF8F2
:1041F000047B7047EC3E002080B584B000AF002304
:10420000FB600023BB60444B1B68002B0AD14FF0BE
:10421000500383F31188BFF36F8FBFF34F8F3B6061
:1042200000BFFEE7FEF796FE3B4B1B68013B3A4A98
:104230001360394B1B68002B66D1384B1B68002B71
:1042400062D033E0364BDB68DB68FB60FB68183319
:104250001846FEF727FDFB6804331846FEF722FDDB
:10426000FB68184602F074F8FB68DA6A2D4B1B688D
:104270009A4203D9FB68DB6A2A4A1360FB68DA6A50
:1042800013469B0013449B00274A1A44FB680433DF
:1042900019461046FEF7A9FCFB68DA6A234B1B6837
:1042A000DB6A9A4202D3224B01221A601C4B1B6824
:1042B000002BC7D1FB68002B01D000F07DFB1D4B0C
:1042C0001B687B607B68002B10D000F047F803462A
:1042D000002B02D0164B01221A607B68013B7B60E9
:1042E0007B68002BF1D1134B00221A60104B1B6826
:1042F000002B09D00123BB600F4B4FF080521A6096
:10430000BFF34F8FBFF36F8FFEF754FEBB681846A5
:104310001037BD4680BD00BFEC3E0020C43E0020EB
:10432000843E0020CC3E0020F4390020F0390020EB
:10433000D83E0020D43E002004ED00E080B483B0DD
:1043400000AF054B1B687B607B6818460C37BD4689
:104350005DF8047B704700BFC83E002080B586B082
:1043600000AF00237B61514B1B68002B40F0938012
:104370004F4B1B6801333B614D4A3B6913603B69FE
:10438000002B20D14B4B1B681B68002B0AD04FF031
:10439000500383F31188BFF36F8FBFF34F8F3B60E0
:1043A00000BFFEE7434B1B68FB60434B1B68414A61
:1043B0001360414AFB681360404B1B6801333F4A5E
:1043C000136000F0F9FA3E4B1B683A699A424DD3EC
:1043D000384B1B681B68002B04D1394B4FF0FF3260
:1043E0001A6043E0334B1B68DB68DB68BB60BB686B
:1043F0005B687B603A697B689A4203D2304A7B688B
:10440000136033E0BB6804331846FEF74BFCBB680F
:104410009B6A002B04D0BB6818331846FEF742FC99
:10442000BB68184601F094FFBB68DA6A254B1B682D
:104430009A4203D9BB68DB6A224A1360BB68DA6A16
:1044400013469B0013449B001F4A1A44BB68043365
:1044500019461046FEF7C9FBBB68DA6A1B4B1B689E
:10446000DB6A9A42B4D301237B61B1E7174B1B6827
:10447000DA6A154913469B0013449B000B441B68E2
:10448000012B01D901237B61114B1B68002B07D045
:1044900001237B6104E00F4B1B6801330D4A13605D
:1044A0007B6918461837BD4680BD00BFEC3E002032
:1044B000C83E00207C3E0020803E0020DC3E0020E4
:1044C000E43E0020CC3E0020F4390020F0390020EA
:1044D000D83E0020D43E002080B584B000AF334BDE
:1044E0001B68002B03D0324B01221A6059E0304B7D
:1044F00000221A602F4B1B68FB6010E0FB68002B4A
:104500000AD14FF0500383F31188BFF36F8FBFF3CD
:104510004F8F7B6000BFFEE7FB68013BFB602649D5
:10452000FA6813469B0013449B000B441B68002B46
:10453000E4D0FA6813469B0013449B001E4A1344C0
:10454000BB60BB685B685A68BB685A60BB685A68E6
:10455000BB6808339A4204D1BB685B685A68BB6881
:104560005A60BB685B68DB68144A1360114AFB68D9
:104570001360124B1B68343305221149184602F0B0
:10458000E7F90346002B05D00C4B1B68184601F0D9
:104590009DFE01E001F03CFE084B1B685833094AC0
:1045A000136000BF1037BD4680BD00BFEC3E002049
:1045B000D83E0020CC3E0020F4390020F039002005
:1045C000606C00080000002080B584B000AF786007
:1045D00039607B68002B0AD14FF0500383F31188B8
:1045E000BFF36F8FBFF34F8FFB6000BFFEE7074B3A
:1045F0001B68183319467868FEF71BFB01213868E1
:1046000000F08EFA00BF1037BD4680BDF0390020A3
:1046100080B586B000AFF860B9607A60FB68002BA7
:104620000AD14FF0500383F31188BFF36F8FBFF3AC
:104630004F8F7B6100BFFEE70B4B1B681833194699
:10464000F868FEF7D2FA7B68002B02D04FF0FF33F8
:10465000BB60242001F07CF97968B86800F060FA4A
:1046600000BF1837BD4680BDF039002080B586B048
:1046700000AF78607B68DB68DB683B613B69002BDF
:104680000AD14FF0500383F31188BFF36F8FBFF34C
:104690004F8FFB6000BFFEE73B6918331846FEF7FB
:1046A00001FB204B1B68002B21D13B6904331846CA
:1046B000FEF7F8FA3B69184601F04AFE3B69DA6AF0
:1046C000194B1B689A4203D93B69DB6A164A13608F
:1046D0003B69DA6A13469B0013449B00134A1A4451
:1046E0003B69043319461046FEF77FFA05E03B6943
:1046F000183319460E48FEF778FA3B69DA6A0D4B13
:104700001B68DB6A9A4205D901237B610A4B0122AF
:104710001A6001E000237B617B6918461837BD46AB
:1047200080BD00BFEC3E0020CC3E0020F4390020CC
:10473000843E0020F0390020D83E002080B483B0B1
:1047400000AF7860064B1A687B681A60054B1A68E0
:104750007B685A6000BF0C37BD465DF8047B70472C
:10476000DC3E0020C83E002080B588B000AF7860F5
:1047700039607B68002B0AD14FF0500383F3118816
:10478000BFF36F8FBFF34F8F3B6100BFFEE73B6806
:10479000002B0AD14FF0500383F31188BFF36F8FC2
:1047A000BFF34F8FFB6000BFFEE7FEF7D3FB1D4B4F
:1047B0001B68BB617B685B68BA69D31A7B613B6825
:1047C0001B68B3F1FF3F02D10023FB6123E07B684C
:1047D0001A68154B1B689A4207D07B685B68BA69F8
:1047E0009A4202D30123FB6115E03B681B687A699A
:1047F0009A420BD23B681A687B69D21A3B681A60EE
:104800007868FFF79BFF0023FB6104E03B68002210
:104810001A600123FB61FEF7CDFBFB6918462037C8
:10482000BD4680BDC83E0020DC3E002080B400AF05
:10483000034B01221A6000BFBD465DF8047B704740
:10484000D83E002080B582B000AF786000F052F80A
:10485000064B1B68012BF9D9054B4FF080521A60AB
:10486000BFF34F8FBFF36F8FF0E700BFF439002025
:1048700004ED00E080B582B000AF00237B600CE067
:104880007A6813469B0013449B00124A134418464F
:10489000FEF77EF97B6801337B607B68372BEFD9AD
:1048A0000D48FEF775F90D48FEF772F90C48FEF752
:1048B0006FF90C48FEF76CF90B48FEF769F90B4BE2
:1048C000054A1A600A4B054A1A6000BF0837BD4600
:1048D00080BD00BFF4390020543E0020683E002017
:1048E000843E0020983E0020B03E00207C3E002008
:1048F000803E002080B582B000AF19E0FEF72AFBB1
:10490000104BDB68DB687B607B6804331846FEF77E
:10491000C9F90D4B1B68013B0B4A13600B4B1B681D
:10492000013B0A4A1360FEF745FB786800F010F877
:10493000064B1B68002BE1D100BF00BF0837BD4606
:1049400080BD00BF983E0020C43E0020AC3E002049
:1049500080B584B000AF78607B685833184602F0A9
:1049600003F97B6893F88534002B08D17B681B6BB7
:10497000184601F0D2FF786801F0CFFF18E07B689D
:1049800093F88534012B03D1786801F0C6FF0FE05E
:104990007B6893F88534022B0AD04FF0500383F3E1
:1049A0001188BFF36F8FBFF34F8FFB6000BFFEE72F
:1049B00000BF1037BD4680BD80B483B000AF0C4B44
:1049C0001B681B68002B04D10A4B4FF0FF321A60A2
:1049D00008E0074B1B68DB68DB687B607B685B6813
:1049E000044A136000BF0C37BD465DF8047B704776
:1049F0007C3E0020E43E002080B483B000AF0B4B2F
:104A00001B68002B02D101237B6008E0084B1B6868
:104A1000002B02D102237B6001E000237B607B68D6
:104A200018460C37BD465DF8047B7047D03E002029
:104A3000EC3E002080B586B000AF78607B683B61BB
:104A400000237B617B68002B5FD0324B1B683A6987
:104A50009A420AD04FF0500383F31188BFF36F8F4F
:104A6000BFF34F8FFB6000BFFEE73B691B6D002B60
:104A70000AD14FF0500383F31188BFF36F8FBFF358
:104A80004F8FBB6000BFFEE73B691B6D5A1E3B6941
:104A90001A653B69DA6A3B69DB6C9A4235D03B693F
:104AA0001B6D002B31D13B6904331846FEF7FAF831
:104AB0007B6819464A2000F069FF3B69DA6C3B6964
:104AC000DA623B69DB6AC3F138023B699A613B6990
:104AD000184601F03DFC3B69DA6A0F4B1B689A42AD
:104AE00003D93B69DB6A0C4A13603B69DA6A1346F7
:104AF0009B0013449B00094A1A443B69043319463E
:104B00001046FEF772F801237B617B69184618375F
:104B1000BD4680BDF0390020CC3E0020F439002095
:104B200080B584B000AF78603960214B1B68FB60B2
:104B3000204B1B6804331846FEF7B4F87B68B3F1CA
:104B4000FF3F0AD13B68002B07D01A4B1B68043388
:104B500019461948FEF749F826E0FA687B681344BD
:104B6000BB60144B1B68BA685A60BA68FB689A420B
:104B700009D2124B1A680F4B1B68043319461046B2
:104B8000FEF757F810E00E4B1A680A4B1B68043307
:104B900019461046FEF74DF80A4B1B68BA689A4250
:104BA00002D2084ABB68136000BF1037BD4680BD03
:104BB000C83E0020F0390020B03E0020803E00209A
:104BC0007C3E0020E43E002080B58AB004AF002384
:104BD0007B6100F007FB1C4B1B68002B21D00023DE
:104BE000FB600023BB603A1D07F1080107F10C03CD
:104BF0001846FDF7B3FF7968BB68FA680292019323
:104C00000223009300230A4610491148FFF72AF8AF
:104C10000346104A13600F4B1B68002B01D0012381
:104C20007B617B69002B0AD14FF0500383F311881D
:104C3000BFF36F8FBFF34F8F3B6100BFFEE77B6910
:104C400018461837BD4680BD203F0020686C00081C
:104C50008D4D0008243F002080B58AB000AFF86079
:104C6000B9607A603B6000237B62FB68002B0AD14D
:104C70004FF0500383F31188BFF36F8FBFF34F8F53
:104C80003B6200BFFEE71A4B1B68002B2AD0BB68B3
:104C90003B617B687B61FB68BB61BB68052B18DCF3
:104CA000FFF7AAFE0346022B09D1114B186807F142
:104CB000100100233A6BFEF779FB786212E00C4B8F
:104CC000186807F1100100230022FEF76FFB7862DD
:104CD00008E0074B186807F1100100233A68FEF757
:104CE0008BFC78627B6A18462837BD4680BD00BFC2
:104CF000203F002080B588B002AF78603960224B39
:104D00001B68DB68DB687B617B6904331846FDF751
:104D1000C9FF7B6993F8283003F00403002B22D0ED
:104D20007B699A697B68D1187B683A68786900F07A
:104D3000D1F80346002B1FD00023009300237A688C
:104D400000217869FFF788FF38613B69002B13D198
:104D50004FF0500383F31188BFF36F8FBFF34F8F72
:104D6000FB6000BFFEE77B6993F8283023F0010366
:104D7000DAB27B6983F828207B691B6A78699847D7
:104D800000BF1837BD4680BD183F002080B584B0F5
:104D900000AF786007F10803184600F057F8F86094
:104DA000BB681946F86800F003F800F0D5F8F1E7A1
:104DB00080B584B000AF78603960FFF70FFA07F173
:104DC0000803184600F066F8F860BB68002B30D185
:104DD0003B68002B0AD17A68FB689A4206D8FFF735
:104DE0000BFAF9687868FFF785FF24E03B68002B31
:104DF00008D0134B1B681B68002B01D1012300E076
:104E000000233B600F4B18687A68FB68D31A3A6836
:104E10001946FEF7F3FEFFF7EFF90346002B0AD120
:104E2000094B4FF080521A60BFF34F8FBFF36F8F63
:104E300001E0FFF7E1F900BF1037BD4680BD00BFBC
:104E40001C3F0020203F002004ED00E080B485B02E
:104E500000AF78600E4B1B681B68002B01D101224C
:104E600000E000227B681A607B681B68002B05D17C
:104E7000074B1B68DB681B68FB6001E00023FB60DD
:104E8000FB6818461437BD465DF8047B704700BFC9
:104E9000183F002080B584B000AF7860FFF74EFA6D
:104EA000F8600B4B1B68FA689A4205D200F036F99D
:104EB0007B6801221A6002E07B6800221A60044AC3
:104EC000FB681360FB6818461037BD4680BD00BF05
:104ED000283F002080B586B000AFF860B9607A60E6
:104EE0003B6000237B61FB68BA685A60FB68FA6824
:104EF0001A61BA687B689A4212D87A683B68D21AFB
:104F0000FB689B699A4202D301237B611BE0104B33
:104F10001A68FB68043319461046FDF78AFE12E052
:104F20007A683B689A4206D2BA683B689A4202D3D2
:104F300001237B6107E0074B1A68FB6804331946BD
:104F40001046FDF776FE7B6918461837BD4680BDD2
:104F50001C3F0020183F002080B58EB002AFCAE091
:104F60007B68002B18DA3B1D0433FB62FB6A002BC5
:104F70000AD14FF0500383F31188BFF36F8FBFF353
:104F80004F8FFB6100BFFEE7FB6A1B68FA6A50683F
:104F9000FA6A9268114698477B68002BC0F2AA8093
:104FA000FB68BB62BB6A5B69002B04D0BB6A04333D
:104FB0001846FDF777FE3B461846FFF76BFF786211
:104FC0007B68092B00F2978001A252F823F000BF02
:104FD000F94F0008F94F0008F94F00086D5000081C
:104FE00081500008CB500008F94F0008F94F000825
:104FF0006D50000881500008BB6A93F8283043F0D8
:105000000103DAB2BB6A83F82820BA68BB6A9B69DD
:10501000D118BB687A6AB86AFFF75CFF0346002BB9
:1050200069D0BB6A1B6AB86A9847BB6A93F8283094
:1050300003F00403002B5ED0BA68BB6A9B691A4474
:105040000023009300230021B86AFFF705FE3862B1
:105050003B6A002B4FD14FF0500383F31188BFF30D
:105060006F8FBFF34F8FBB6100BFFEE7BB6A93F842
:10507000283023F00103DAB2BB6A83F828203AE033
:10508000BB6A93F8283043F00103DAB2BB6A83F8B5
:105090002820BA68BB6A9A61BB6A9B69002B0AD157
:1050A0004FF0500383F31188BFF36F8FBFF34F8F1F
:1050B0007B6100BFFEE7BB6A9A697B6AD1187B6A95
:1050C0007A6AB86AFFF706FF15E0BB6A93F82830E2
:1050D00003F00203002B03D1B86A01F01EFC0AE0C2
:1050E000BB6A93F8283023F00103DAB2BB6A83F875
:1050F000282000E000BF084B1B68391D002218461D
:10510000FEF72AFB0346002B7FF42AAF00BF00BF47
:105110003037BD4680BD00BF203F002080B588B03D
:1051200002AF48E02D4B1B68DB681B683B612B4BD3
:105130001B68DB68DB68FB60FB6804331846FDF71F
:10514000B1FDFB681B6AF8689847FB6893F8283044
:1051500003F00403002B2ED0FB689B693A691344CB
:10516000BB60BA683B699A420ED9FB68BA685A605C
:10517000FB68FA681A61194B1A68FB680433194610
:105180001046FDF756FD16E00023009300233A6910
:105190000021F868FFF760FD78607B68002B0AD17A
:1051A0004FF0500383F31188BFF36F8FBFF34F8F1E
:1051B0003B6000BFFEE7094B1B681B68002BB1D1A9
:1051C000064B1B687B61064B1B68044A1360044A4C
:1051D0007B69136000BF1837BD4680BD183F0020B3
:1051E0001C3F002080B582B002AFFDF7B3FE154B27
:1051F0001B68002B20D11448FDF7CAFC1348FDF7AB
:10520000C7FC134B104A1A60124B104A1A60002355
:105210000093114B114A10210A20FEF725F803468E
:10522000084A1360074B1B68002B05D0054B1B6811
:105230000B491846FEF7B0FCFDF7BCFE00BFBD46AB
:1052400080BD00BF203F0020F03E0020043F002032
:10525000183F00201C3F0020CC3F00202C3F0020A6
:10526000706C000880B582B000AF264B3B60A8226E
:1052700000213868FBF7BCF93B6803221A613B68E0
:1052800003225A613B68204A9A613B681F4ADA61EF
:105290003B684FF480621A623B6800229A623B6866
:1052A00000225A623B680022DA623B68164A1A669C
:1052B0003B68174A5A663B6810229A663B68002290
:1052C0001A673B680022DA663B6800225A67BFF320
:1052D0005F8F00237B600CE07B68C3F10F030D4AF6
:1052E000D15C3A687B6813440A461A707B680133C4
:1052F0007B607B680F2BEFD9BFF35F8F00BF083750
:10530000BD4680BD1C400020786C0008C4400020D1
:10531000C4440020646D000880B58CB000AFF86014
:10532000B9607A603E4B3B623B6A1B78DBB2532B21
:1053300001D0FFF797FFFA6813465B001344DB00C8
:105340006033374A1344FB61BB687B62FB691B69AE
:10535000BB62FB69DB68BB610023FB62BA6ABB69A5
:105360009A422BD9FB699A68BB6AD31A7B617A6926
:105370007B68934228BF13467B61FB695A68BB6A0E
:1053800013443B617A693969786A01F0F1FAFA6A83
:105390007B691344FB627A6A7B6913447B627A6897
:1053A0007B69D31A7B60BA6A7B691344BB62FB6971
:1053B0009B68BA6A9A4201D10023BB62BA69BB6A90
:1053C000D31A7B617A697B68934228BF13467B615D
:1053D0007B69002B19D0FB695A68BB6A13443B6197
:1053E0007A693969786A01F0C3FAFA6A7B69134409
:1053F000FB627A6A7B6913447B627A687B69D31AA1
:105400007B60BA6A7B691344BB62FB6A002B02D0E3
:10541000FB69BA6A1A61FB6A18463037BD4680BD1F
:105420001C40002080B487B000AFF860B9607A609B
:10543000BB68002B05D1FB685A1CFA6000221A7069
:1054400022E0BB687B61FB685A1CFA603B617B68A9
:10545000802B0AD980237B6007E0BA68531CBB60AD
:10546000FB68591CF96012781A707B685A1E7A60C2
:10547000002B03D0BB681B78002BEED1BA687B6988
:10548000D31ADAB23B691A70FB6818461C37BD465E
:105490005DF8047B704780B483B000AF78607B68B0
:1054A000073318460C37BD465DF8047B7047000093
:1054B00080B582B000AF354B1B7E1846FB1C012225
:1054C0001946FFF729FF78607B68002B52D0FB78E4
:1054D000802B31D0802B40DC072B15DC002B3CDDF2
:1054E000013B062B39D801A252F823F00F550008D2
:1054F000155500081B5500082155000827550008C0
:105500002D550008335500087F2B35D025E000F0DD
:10551000DBFB36E000F092FC33E000F047FE30E0C9
:1055200000F030FE2DE000F0AFFC2AE001F00AF8B8
:1055300027E000F0E9FF24E0144B1B7E1846FB1C1B
:1055400001221946FFF7E8FE78607B68002B15D032
:10555000FB78184600F04EFF10E0FB785BB2002BA2
:105560000EDA0A4B1B7E1846FB1C01221946FFF778
:10557000D3FE05E000BF04E000BF02E000BF00E092
:1055800000BF00BF0837BD4680BD00BFD444002027
:1055900080B58CB000AF01233B713B1D0133FB6133
:1055A000FB69FB62314B5B69BB620BE0BB6ADAB241
:1055B000FB6A591CF96262F07F02D2B21A70BB6AB0
:1055C000DB09BB62BB6A7F2BF0D8FB6A5A1CFA620C
:1055D000BA6AD2B21A70FB6AFB61254B1B68BB61C9
:1055E000224BDB68BA69D31A7B61FB697B627B69FA
:1055F0003B620BE03B6ADAB27B6A591C796262F06B
:105600007F02D2B21A703B6ADB093B623B6A7F2B96
:10561000F0D87B6A5A1C7A623A6AD2B21A707B6AF4
:10562000FB61124B5B7818463B1DFA69D31A1A4688
:105630003B1D1946FAF7ECFD03463B613B69002B25
:1056400009D00A4ABB69D360084B1B78013BDAB228
:10565000064B1A7004E0054B5B690133034A536142
:105660003B6918463037BD4680BD00BFD44400209A
:10567000041000E080B58AB000AFF860B9607A60CD
:10568000984B1B78012B10D0964B1B78002B00F009
:105690002D81944B1B78022B09D1FFF779FF914B99
:1056A0001B78012B40F0248101E000BF00E000BF27
:1056B0007B681F2B09D88B4BDA697B6822FA03F3CE
:1056C00003F00103002B40F015817B68172B07D8EE
:1056D000FB68013BFB607B68DAB2FB681A70C4E0D0
:1056E000BA68FB68D31AFB61FB697F2B12D9FB698F
:1056F000DA09FB68013BFB60D2B2FB681A70FB69F8
:10570000DBB2FA68013AFA6063F07F03DAB2FB6851
:105710001A7006E0FB68013BFB60FB69DAB2FB68CC
:105720001A707B687E2B07D8FB68013BFB607B68A7
:10573000DAB2FB681A7098E07B68B3F5804F12D23A
:105740007B68DA09FB68013BFB60D2B2FB681A7028
:105750007B68DBB2FA68013AFA6063F07F03DAB281
:10576000FB681A7081E07B68B3F5001F1DD27B686F
:105770009A0BFB68013BFB60D2B2FB681A707B6836
:10578000DB09DBB2FA68013AFA6063F07F03DAB250
:10579000FB681A707B68DBB2FA68013AFA6063F062
:1057A0007F03DAB2FB681A705FE07B68B3F1805F59
:1057B00028D27B685A0DFB68013BFB60D2B2FB68C4
:1057C0001A707B689B0BDBB2FA68013AFA6063F0EF
:1057D0007F03DAB2FB681A707B68DB09DBB2FA6818
:1057E000013AFA6063F07F03DAB2FB681A707B68F3
:1057F000DBB2FA68013AFA6063F07F03DAB2FB6861
:105800001A7032E07B681A0FFB68013BFB60D2B272
:10581000FB681A707B685B0DDBB2FA68013AFA60CC
:1058200063F07F03DAB2FB681A707B689B0BDBB214
:10583000FA68013AFA6063F07F03DAB2FB681A7023
:105840007B68DB09DBB2FA68013AFA6063F07F0338
:10585000DAB2FB681A707B68DBB2FA68013AFA6068
:1058600063F07F03DAB2FB681A701F4B1B68BB61E1
:105870001C4BDB68BA69D31A7B61BB687B627B69AE
:105880003B620BE03B6ADAB27B6A591C796262F0D8
:105890007F02D2B21A703B6ADB093B623B6A7F2B04
:1058A000F0D87B6A5A1C7A623A6AD2B21A707B6A62
:1058B000BB600C4B5B781846BA68FB68D31A1A4673
:1058C000F968FAF7A5FC38613B69002B03D0054A5B
:1058D000BB69D3600FE0034B1B780133DAB2014B95
:1058E0001A7008E0D4440020041000E000BF02E079
:1058F00000BF00E000BF144B1B7E1946134A0B4645
:105900005B000B44DB0013446C331A680E4B1B7EA8
:1059100018460E4903465B000344DB000B4470331A
:105920001B689A420BD0084B9B78002B07D1064B83
:1059300001229A70FFF7BCFD034B00229A7000BF52
:105940002837BD4680BD00BFD44400201C40002045
:1059500080B584B000AF7860EFF311834FF0200181
:1059600081F31188FB600848FFF795FDB8607A68FD
:10597000B968B868FFF77EFEFB6883F3118800BF43
:105980001037BD4680BD00BF0445002080B588B0FB
:1059900000AF78603960EFF311834FF0200181F39D
:1059A00011887B611648FFF776FD38613B69FB6023
:1059B000FB68FB613B68BB610BE0BB69DAB2FB696A
:1059C000591CF96162F07F02D2B21A70BB69DB091F
:1059D000BB61BB697F2BF0D8FB695A1CFA61BA69BD
:1059E000D2B21A70FB69FB607A68F9683869FFF710
:1059F00041FE7B6983F3118800BF2037BD4680BD1F
:105A00000445002080B58CB000AFF860B9607A60C2
:105A1000EFF311834FF0200181F31188FB612548DA
:105A2000FFF739FDB861BB697B617B69FB62BB68CD
:105A3000BB620BE0BB6ADAB2FB6A591CF96262F026
:105A40007F02D2B21A70BB6ADB09BB62BB6A7F2BD2
:105A5000F0D8FB6A5A1CFA62BA6AD2B21A70FB6AB0
:105A60007B617B697B627B683B620BE03B6ADAB2FD
:105A70007B6A591C796262F07F02D2B21A703B6A6B
:105A8000DB093B623B6A7F2BF0D87B6A5A1C7A6247
:105A90003A6AD2B21A707B6A7B61FA687969B8692E
:105AA000FFF7E8FDFB6983F3118800BF3037BD467F
:105AB00080BD00BF0445002080B58EB000AFF86007
:105AC000B9607A603B60EFF311834FF0200181F3FE
:105AD0001188FB613248FFF7DEFCB861BB697B616E
