:020000040800F2
:1000000070060020D5000008D1180008D715000898
:1000100000000000000000000000000000000000E0
:100020000000000000000000000000001B19000894
:100030000000000000000000191900081D19000848
:100040000501000805010008050100080501000878
:100050000501000805010008050100080501000868
:10006000050100087D0100080501000805010008E0
:100070000501000805010008050100080501000848
:10008000050100080000000000000000E919000858
:1000900000000000F9190008091A0008050100080D
:1000A0000000000005010008050100080501000826
:1000B0000501000800000000050100080501000816
:1000C0000348854600F048F800480047AD1B00088B
:1000D000700600200C4880F308880C480168090E5F
:1000E0000B4A914205D10B480B4901600B480C4962
:1000F00001600C4880470C480047FEE7FEE7FEE73A
:10010000FEE7FEE7FEE700007006002004000000A6
:100110001F00000018100240010000000000014014
:10012000000000008D190008C100000830B50B4622
:10013000014600202022012409E00D46D5409D42C1
:1001400005D31D469540491B254695404019154647
:10015000521E002DF1DC30BD064C0125064E05E097
:10016000E36807CC2B430C3C98471034B442F7D3D8
:10017000FFF7AAFF601C0008801C000810B50248A9
:1001800000F06EFA10BD00002802002010B50446F1
:100190000068054940181421FFF7C8FF800020645B
:1001A0000248E06310BD0000F8FFFDBF0000024000
:1001B000F8B500250446403400952278012A3BD04A
:1001C0000122227003689E68760776D43F4F4E68FE
:1001D000BE4254D09E6A0F78BA4016439E620123F5
:1001E000826B1B079A421FD0012A1DD0022A1BD006
:1001F000032A19D0042A17D0052A15D0062A13D0AD
:10020000072A11D002688B6856697607760FB342C9
:100210000AD05369DB08DB005361006842690B7A3E
:100220005B075B0F1A4342610868102806D011284B
:1002300004D0122802D045E00220F8BD244A936879
:10024000102809D011280AD001200006034393602A
:100250000868102806D035E00120C005F6E7012027
:100260008005F3E71C481B490068FFF75FFF0A2180
:10027000484300E0401E00900028FBD122E0986A2D
:100280000E78B240904398620868102803D0112875
:1002900001D0122816D10E498A68102807D01128DB
:1002A00008D00120000682438A600BE005E00120AF
:1002B000C005F8E701208005F5E7416C20221143D5
:1002C00041640125002020702846F8BD011000007F
:1002D0000027014040420F0004000020F8B500252F
:1002E0000446002803D0606C002802D008E00120FA
:1002F000F8BD0020A06440210855204600F0A8F871
:10030000606C1022C006002870DB206881684907F5
:100310006CD4616C130199430223194361648168B1
:100320008907890F012905D10168C9070FD1C16863
:1003300009040CD4C16818239943A3681943C16008
:100340002068016963688900890819430161206890
:10035000C1683D4B1940C160A069E1698003C903D0
:100360000843216A4B031843636B012B02D001231E
:100370001B0300E000231843E36818432369022BA2
:1003800009D000231843236B666A5B0018430123DE
:10039000012E02D00AE00423F4E7002927D0616C83
:1003A000202631436164A16C1943A164A16A0E4601
:1003B000FF3EC23E02D0E66A314308432168CE6860
:1003C0000643CE600126A16B3607B14213D0012946
:1003D00011D002290FD003290DD004290BD00529F3
:1003E00009D0062907D0072905D010E028E001210F
:1003F00009040843DAE721684E69F608F6004E6101
:1004000021684E69278F7F077F0F3E434E61216829
:10041000C9680E4E3140814207D10020A064606C53
:1004200080088000401C606408E0606C0221884302
:1004300010436064A06C1843A06401252846F8BDF1
:10044000606C10436064F8E71902FEFFE7FF3F832A
:10045000F0B505460068194987B088422BD1184885
:10046000826941150A43826180692027084000970C
:100470000590032001900026092069460296C006D7
:1004800000F068F90F48104C41C48020266060607D
:100490004000A06080002761E060800060610A4841
:1004A000083C00F02BF9002803D0682107A001F0D8
:1004B0006CFBEC63656207B0F0BD000000240140F6
:1004C0000010024008000240280200202E2E2F5368
:1004D00072632F73746D3332663078785F68616C45
:1004E0005F6D73702E630000F8B5040006D02546DA
:1004F0002035687F0026002802D005E00120F8BDE5
:100500002E77204600F086F80220687721680A6876
:1005100082430A602068016801221143016000F0F3
:10052000BDF9074604E000F0B9F9C01B0A285ED8FF
:1005300020684068C007F6D0206841680427C907D2
:10054000002960D0A2698021012A02683DD08A4337
:100550000260E069402101282068026837D08A43A0
:100560000260206A202101282068026831D08A4375
:100570000260616A1020012921680A682BD0824339
:100580000A60A16A0820012921680A6825D08243EF
:100590000A60E06A01282068016820D0B943016040
:1005A000E168A068626908432169114308436168F2
:1005B000491E08432168C86120680168490849004C
:1005C000016000F06BF9009015E00A43C0E70A43B0
:1005D000C6E70A43CCE70243D2E70243D8E73943F0
:1005E000DDE700F05BF90099401A0A2803D90320DF
:1005F00068772E77F8BD20684068C007F1D1206881
:100600004068C00701D06F7778E7266401206877DB
:100610000020F8BD00B500680F4987B0884218D1A6
:100620000E48C269012149060A43C261C0690840F7
:1006300005900320C002009002200190002002904B
:10064000032003900420049009206946C00600F0AE
:1006500081F807B000BD00000064004000100240B7
:10066000F0B4C16B0D6801680C680422066C134677
:10067000B3402B420DD063070BD50B689B0602D409
:100680000B6893430B60016C8A40C16B4A60C16A7E
:1006900019E00227B74002462F4001232032002FE5
:1006A00015D0A70713D50C68A40604D40C680A2536
:1006B000AC430C605370036C02219940C36B5960CA
:1006C00000211170816A002916D0F0BC0847082764
:1006D000B7402F4210D024070ED50C680E25AC432E
:1006E0000C60046C1946A140C46B61608363537055
:1006F00000211170016BE6E7F0BC704770B5040093
:1007000024D00220214620310D464870226811680D
:100710000F48A3680140606826691843E3683343C3
:10072000184363691843A3691843E36918430843EE
:1007300010602046FFF72AFD0020A062E0622063DF
:100740006063A06301216970287070BD012070BDD5
:100750000FC0FFFFF8B5002389E001249C402A4622
:10076000A44622407ED04C68022C01D0122C0CD121
:10077000DC08A40027183C6A5D07ED0E0F26AE408A
:10078000B4430E69AE4026433E6205685E00032412
:10079000B4400F79A543BF07BF0FB7402F43076091
:1007A0004D68012D05D0022D03D0112D01D0122D41
:1007B0000ED18568CF68A543B7402F43876047684F
:1007C0006546AF430D79ED06ED0F9D403D43456015
:1007D000C568A5438C68B4402C43C4604C68E400F1
:1007E00044D5264CA56901263543A561A4699D0819
:1007F00034400094224CAD002F19BC689D072E0F89
:100800000F25B540AC430925ED06A84201D10025CE
:100810000AE01C4DA84201D1012505E01A4DA8426D
:1008200001D1022500E00525B5402543BD60174CE8
:1008300025684E689543F60300D515432560656825
:100840004E689543B60300D515436560A5684E68AC
:100850009543F60200D51543A560E5684E689543BB
:10086000B60200E002E000D51543E5605B1C0A68B3
:100870001546DA4000D070E7F8BD000000100240D5
:100880000000014000040048000800480004014046
:10089000002A01D081617047816270470148006879
:1008A000704700000000002070B504000FD02168E0
:1008B0001348086021681348086003CC4160206831
:1008C000083C21688860FFF7E9FF054608E0012041
:1008D00070BDFFF7E3FF401B272801D9032070BD3F
:1008E0002068C0680028F4D120680269E1688A4263
:1008F00001D0016101E004490160002070BD0000E9
:10090000CCCC000055550000AAAA0000024801689E
:10091000491C0160704700000000002010B5064827
:100920000168102211430160002000F007F800F078
:1009300017F8002010BD00000020024010B504464A
:1009400000F0E8F87D21C900FFF7F0FB00F026FB7E
:1009500000222146501E00F02FF8002010BD00009C
:1009600008B50F48816901221143816181691140F5
:100970000091C26901040A43C261C06900220840B3
:1009800000901146501F00F017F800221146901EEB
:1009900000F012F800221146501E00F00DF808BDBC
:1009A00000100240C106C90E0120884001490860BC
:1009B0007047000000E100E010B500F08BFF10BDB3
:1009C000F8B505464E480E460068C007C00FB04255
:1009D0000AD24B4801684908490031430160006868
:1009E000C007C00FB04270D12878464C800705D5AB
:1009F0006068F0218843A968084360602878C007D0
:100A000053D06868012817D0022818D0032819D0BD
:100A100021688907002958DA61688908890001433B
:100A20006160FFF73BFF69680746012913D002297F
:100A30001DD0032927D034E021688903EAE7216823
:100A40008901E7E7616BC903E4E7FFF727FFC11BF3
:100A50002D48814223D860680007800F0128F4D117
:100A600023E0FFF71BFFC11B2748814217D86068AE
:100A70000007800F0228F4D117E0FFF70FFFC11B1A
:100A8000214881420BD860680007800F0328F4D109
:100A90000BE0FFF703FFC11B1B48814201D9032074
:100AA000F8BD60680007800FF3D115480168C907D9
:100AB000C90FB1420BD901684908490031430160AF
:100AC0000068C007C00FB04201D00120F8BD2878EF
:100AD000400706D56068072109028843E968084392
:100AE000606000F01DF86168084A0906090F515C52
:100AF000C840074908600020FFF720FF0020F8BD2C
:100B0000002002400010024088130000501C000822
:100B10000400002001480068704700000400002025
:100B200030B516A30FCB89B06C460FC417A30FCBFB
:100B30000FC41A494A680C20144604401848042C73
:100B400005D0184B082C04D00C2C00D1184609B045
:100B500030BD9402240F6D462C5DC96A04AD0907AF
:100B6000090FD203695C920F022A02D0032A00D136
:100B70001846FFF7DBFA6043E9E7000002030405CB
:100B8000060708090A0B0C0D0E0F101001020304D2
:100B900005060708090A0B0C0D0E0F100010024085
:100BA00000127A00006CDC02FEB504460078F04EBC
:100BB000F04DC00748D068680007800F01281FD09B
:100BC00068680007800F022804D16868C003800F9E
:100BD000022815D06168012919D00120800400295C
:100BE00001D0052917D02968B143296029688143BC
:100BF0002960606800281BD0FFF750FE074613E00D
:100C00002868800320D56068002876D01CE028681A
:100C100030432860EDE7296801432960F7E7FFF7D3
:100C20003DFEC01B642869D828688003F7D50BE017
:100C3000FFF734FE074604E0FFF730FEC01B6428D0
:100C4000F1D828688003F7D4207880073ED56868FB
:100C50000007800F14D068680007800F022804D1B5
:100C60006868C003800F01280AD0E068002828685F
:100C70001DD0012108432860FFF710FE07460BE056
:100C8000286880070BD5E068012836D107E0FFF718
:100C900005FEC01B0228C6D828688007F7D528683B
:100CA000F82188432169C900084328600EE0400804
:100CB00040002860FFF7F2FD074604E0FFF7EEFD75
:100CC000C01B0228AFD828688007F7D42078000717
:100CD00024D5E0690028686A11D0012108436862C0
:100CE000FFF7DCFD074604E0FFF7D8FDC01B022834
:100CF00099D8686A8007F7D510E036E1D1E040085E
:100D000040006862FFF7CAFD074604E0FFF7C6FD32
:100D1000C01B022887D8686A8007F7D42078042788
:100D20004007002861DA00200190E869C00008D47B
:100D3000E969B8060143E961E969014001200091D0
:100D400001908D480168C90511D4016882151143CD
:100D50000160FFF7A3FD009005E0FFF79FFD0099FC
:100D6000401A642897D884480068C005F5D5A06863
:100D700001280AD0002801D0052811D0286A40088F
:100D800040002862286AB84302E0286A012108432B
:100D90002862A068002812D0FFF780FD00900AE0CA
:100DA000286A38432862F0E7FFF778FD0099411A76
:100DB0007248814275D8286A8007F5D50DE0FFF7A3
:100DC0006DFD009006E0FFF769FD0099411A6B4840
:100DD000814266D8286A8007F5D40198002804D09B
:100DE000E969012000078143E9612078C00635D513
:100DF000606901280CD0401D686B24D038436863BB
:100E0000686B400840006863FFF748FD074622E032
:100E1000686B38436863686B012108436863FFF7B8
:100E20003DFD074604E0FFF739FDC01B022838D816
:100E3000686B8007F7D5686BF8218843A169C90002
:100E4000084368630AE0B8436863F4E7FFF726FDE8
:100E5000C01B022825D8686B8007F7D4207880064D
:100E600037D568680007800F032813D0686800072B
:100E7000800F022804D16868C003800F032809D0BE
:100E8000206A0028686B16D030436863FFF706FDC0
:100E900006460CE0686BC0031BD5206A012864D1AC
:100EA00017E05BE0FFF7FAFC801B022856D8686B5E
:100EB000C003F7D50DE0B0436863FFF7EFFC0646CB
:100EC00004E0FFF7EBFC801B022847D8686BC003E7
:100ED000F7D4606A002846D069680907890F02299B
:100EE00043D0012636060228286805D0B043286082
:100EF000FFF7D4FC044633E0B0432860FFF7CEFC94
:100F0000074604E0FFF7CAFCC01B022826D8286861
:100F10008001F7D4E86A216B000900010843E86208
:100F2000A16AE06A084369687B22D20391430843BF
:100F30006860286830432860FFF7B0FC044604E08E
:100F4000FFF7ACFC001B022808D828688001F7D501
:100F500009E0FFF7A3FC001B022801D90320FEBD16
:100F600028688001F5D40020FEBD0120FEBD0000F0
:100F700000000100001002400070004088130000D3
:100F8000042204490428086902D09043086170478C
:100F90001043FBE700E000E070470000094910B58E
:100FA000401E884201D9012010BD074C6061032119
:100FB000081F00F08FFC0020A061072020610020A6
:100FC00010BD0000FFFFFF0000E000E010B5FFF7DC
:100FD000E3FF10BD7047704770B502462032137FA3
:100FE000012B1BD001231377022454770468656812
:100FF0007026B5436560046865680E6835436560B2
:101000000468A5688026B543A560006884684968BF
:101010000C43846053770020107770BD022070BDB0
:1010200070B5040005D025462035687F002802D021
:1010300006E0012070BD00202877204600F00AF865
:1010400002206877211D206800F0E6FC0120687707
:10105000002070BD70B502682D482E4986B08242CE
:1010600008D18A69C01402438A61896901400591E7
:1010700006B070BD284882420DD1CA69801502436E
:10108000CA61C96900220140059111461320FFF78A
:1010900093FC13201DE0214E092000230225052486
:1010A000C006B24218D18E692A0416438E6189693E
:1010B00002931140059140210091019504940393FE
:1010C0006946FFF747FB002211461520FFF774FC25
:1010D0001520FFF767FCCBE7114EB242C8D18E69ED
:1010E0000122920416438E61896902931140059191
:1010F000802100910195049403936946FFF72AFB30
:10110000002211461620FFF757FC1620E1E70000E9
:10111000002C01400010024000200040004401402B
:1011200000480140F8B5054604462035287F0128CF
:1011300017D001272F7702206877226890687726DA
:10114000FF23B0431B02984390600868502837D0B3
:101150000EDC202857D006DC00284ED0102840D1C5
:101160004EE00220F8BD302850D0402839D13CE074
:1011700060282DD0702817D001221203801A0ED0BB
:1011800090422ED1CB684A688968206800F086FCBE
:1011900020688168012292031143816021E0206868
:1011A0008168C908C900F8E7CB684A68896820687F
:1011B00000F074FC21688868B0433043886010E018
:1011C000CA684968206800F07CFC5021206806E06D
:1011D000CA684968206800F0ABFC6021206800F014
:1011E00068FC6F7700202877F8BDCA6849682068D6
:1011F00000F067FC40212068F1E700212068EEE75D
:1012000010212068EBE720212068E8E730212068E2
:10121000E5E70000F8B50D46040005D02646203667
:10122000707F002802D006E00120F8BD0020307752
:10123000204600F03BF80220707720688168C908DA
:10124000C9008160211D206800F0E6FB22689068DB
:101250009369116A2F680743BC461248AF6903407F
:101260003F021F43A868104B3843EF6918403F0204
:101270000743EB6828693B432F6A00013F0338436B
:101280001843AA2399436B686D6967462D010D4386
:101290002B43976021688861206803620120707782
:1012A0000020F8BDFCFCFFFF0303FFFF30B5012564
:1012B0000468AD07002314490122022087B0AC4224
:1012C0000ED1CC691443CC61C96901AC11400591C0
:1012D000032100910DC4049009206946C0060FE067
:1012E0000A4DAC420ED1CC690443CC61C96901AC52
:1012F00001400591302100910DC4694604480492D3
:10130000FFF728FA07B030BD00100240000400408B
:10131000000400487047F8B5064604462036307F82
:101320000D4601283DD00120307702207077002A39
:1013300039D0042A46D0082A57D02B68297B206848
:101340009E468C466B68016A01221203914301623A
:10135000C169026A03273F02B9431B020B430F21F5
:1013600009038B4361460907090C194305235B03F5
:101370009A4373460A273B401B031343C161036230
:101380002068C169032292029143C1612068C1694A
:10139000AA6812021143C1610120707700203077E2
:1013A000F8BD0220F8BDEB6806CD083D206800F0CE
:1013B00099FB206882690C218A43826120688169D7
:1013C000AA680FE0EB6806CD083D206800F0C3FB7B
:1013D00020688269032189028A43826120688169C9
:1013E000AA68120211438161D6E788CD2879216865
:1013F0008446086AFF22013290430862C8690A6A7B
:10140000800880003843F027B84367463F073F0E07
:1014100007430520400282430A200340180210437C
:10142000CF6108622068C1690C229143C1612068C4
:10143000C1692A68AEE770B5040005D0254620359D
:10144000687F002802D006E0012070BD00202877C8
:10145000204600F00AF802206877211D206800F07D
:10146000DBFA01206877002070BD704770B5044634
:10147000006801690025C9438907002915DBC16897
:10148000C943890711D4E91E016101202077206832
:1014900080698007204602D0FFF73CFF04E000F09F
:1014A00096F8204600F094F8257720680169C94332
:1014B000490717D4C168C943490713D40421C94354
:1014C000016102202077206880698005800F204616
:1014D00002D0FFF71FFF04E000F079F8204600F08B
:1014E00077F8257720680169C943090716D4C168D0
:1014F000C943090712D40821C94301610420207798
:101500002068C0698007204602D0FFF703FF04E08F
:1015100000F05DF8204600F05BF82577206801694F
:10152000C943C90617D4C168C943C90613D41021D9
:10153000C9430161082020772068C0698005800FB9
:10154000204602D0FFF7E6FE04E000F040F8204617
:1015500000F03EF8257720680169C943C90708D122
:10156000C168C943C90704D1891E0161204600F042
:1015700030F820680169C943090609D4C168C94324
:10158000090605D48021C94301612046FFF722FDE9
:1015900020680169C943490609D4C168C94349069D
:1015A00005D44021C9430161204600F013F82068AA
:1015B0000169C943890609D4C168C943890605D4AC
:1015C0002021C94301612046FFF705FD70BD70472A
:1015D000704770477047FEE73EB5194817490160EC
:1015E00000214160816002220261C1608161C161AC
:1015F000016204224162426181620124046311029A
:101600004463C162FEF76AFE002800D0FEE70520B1
:101610000090012000030190694602940848FEF7FB
:10162000C7FD002800D0FEE711200090694604485D
:10163000FEF7BEFD002800D0FEE73EBD00240140BD
:101640000800002010B50E480C49016008214160D7
:1016500001221206C2600021816092110261920093
:101660004261C1610122016282618262C2624162A1
:10167000FEF73AFF002800D0FEE710BD00640040EE
:101680005400002070B51F4886B0426901218905C9
:101690000A43426142690A400592426949110A437C
:1016A000426142690A400592426949000A43426127
:1016B00040690725084009262D02F60605900022FC
:1016C00029463046FFF7E4F81C20002400900194DE
:1016D000694602943046FFF73DF811200190012041
:1016E00002900095694603943046FFF733F8C02016
:1016F00000900194694602940348FFF72BF806B066
:1017000070BD000000100240000400481FB51348DF
:10171000114901600024C02184604160046144617A
:101720000F498461C160FFF77BFC002800D0FEE711
:101730000A48FFF780FE002800D0FEE70120019054
:10174000009402940022694603940448FFF7E3FDE5
:10175000002800D0FEE71FBD00440140A801002082
:10176000FFFF00001FB51348114901600024C0218C
:1017700084604160046144610F498461C160FFF786
:101780004FFC002800D0FEE70A48FFF754FE00286F
:1017900000D0FEE7012001900094029400226946E7
:1017A00003940448FFF7B7FD002800D0FEE71FBDF3
:1017B00000480140E8010020FFFF000010B5134978
:1017C000134886B0002412C004608460C4601149CC
:1017D000046141600838FFF723FC002800D0FEE7D1
:1017E00001200003009069460948FFF79BFC002890
:1017F00000D0FEE7202004A911C105480839FFF7F1
:10180000EBFB002800D0FEE706B010BD002C014025
:10181000A80000208713000010B5012113488CB0E8
:101820008907002412C0046084601149046141608A
:1018300003200090012001940290039406900494E8
:1018400005940794694608940848FFF7E3FC0028CC
:1018500000D0FEE7099409A904480A94FFF7BCFBED
:10186000002800D0FEE70CB010BD0000E80000200A
:10187000FFFF000010B5134913488CB0002412C0BC
:1018800004608460114904614160032000900120DC
:101890000194029003940690049405940794694679
:1018A00008940948FFF7B6FC002800D0FEE7099429
:1018B00009A905480A94FFF78FFB002800D0FEE72E
:1018C0000CB010BD0004004028010020FFFF000004
:1018D000704700008307FF22DB0E9A408907090E3C
:1018E000994000280BDA0007000F083883080848E1
:1018F0009B001818C36993430B43C3617047830867
:1019000004489B001B1818689043084318607047F0
:1019100000ED00E000E400E07047704710B5FEF70E
:10192000F5FFFFF753FB10BD10B592B01A200090E1
:101930000120102103900491059000240790099440
:1019400006916846FFF730F9002800D0FEE707202F
:101950000D900E940F94002110940DA8FFF730F80D
:10196000002800D0FEE7FFF7D5F87D21C900FEF77B
:10197000DDFBFFF713FB0420FFF702FB00221146FB
:10198000501EFFF719F812B010BD0000134801688F
:101990000122114301604168114A11404160016810
:1019A000104A1140016001680122920491430160D4
:1019B00041683F22120491434160C16A090909014B
:1019C000C162016BFF22D43291430163416B49082C
:1019D000490041630021816070470000001002400F
:1019E0000CB8FF08FFFFF6FE10B50248FFF73EFDFA
:1019F00010BD00006801002010B50248FFF736FD59
:101A000010BD0000A801002010B50248FFF72EFD10
:101A100010BD0000E8010020F0B502681A4B012457
:101A2000A4071A4D984203D0A04201D0A84203D186
:101A30007026B2434E683243154E164F98420AD074
:101A4000A04208D0A84206D0134CA04203D0B04216
:101A500001D0B84204D103242402A243CC6822431B
:101A60008024A2434C69224302608A68C2620A68E9
:101A70008262984203D0B04201D0B84201D10969D4
:101A8000016301214161F0BD002C014000040040D0
:101A900000440140004801400020004030B5846807
:101AA000FF252D021B021343AC430B4323438360EA
:101AB00030BD826870239A430A4307210A4382603B
:101AC000704730B5036A046A64086400046284697C
:101AD000F025AC43120122430A24A3430B43826145
:101AE000036230BD70B5046A6408640004628469EE
:101AF000056A0D4EB04206D00126B607B04202D0AC
:101B00000A4EB04202D1A408A40000E0012214430E
:101B1000F02294431A07120E0A2322439D431940D0
:101B200029438261016270BD002C01400004004025
:101B300030B5036A1024A34303628469036A0F2546
:101B40002D031203AC432243A024A34309011943EC
:101B50008261016230BD70B5046A1025AC43046235
:101B60008569046A03263602B54312022A430F250B
:101B70002D031B071B0CAA431343A0220901944306
:101B8000114021438361016270BDFEE702E008C895
:101B9000121F08C1002AFAD170477047002001E0E7
:101BA00001C1121F002AFBD17047000008B5FEF7E3
:101BB000B5FEFFF7B9FEFFF765FD1F484169012239
:101BC00011434161406910400022009011460920F4
:101BD000FEF7F2FE0920FEF7E5FEFFF7EFFDFFF747
:101BE000FBFCFFF719FEFFF745FEFFF78FFDFFF740
:101BF000B9FD13481149016007214160002181604E
:101C0000104A0161C2608161FFF70AFA002800D022
:101C1000FEE7FFF717FD0A480B49D03801600321A2
:101C200041600A49C160C8218160FEF73DFE00287D
:101C300000D0FEE7FEE70000001002400020004058
:101C4000680100205FEA000000300040FF0F000044
:101C5000000000000000000001020304060708095C
:101C6000801C000800000020080000008C1B0008F9
:101C7000881C000808000020680600009C1B000863
:081C80000000000000127A00D0
:04000005080000C12E
:00000001FF
